{
  "address": "0xbCF67f3d65A1De293B8cEDF985487bbf3e40e70D",
  "abi": [
    {
      "anonymous": false,
      "inputs": [
        {
          "indexed": false,
          "internalType": "uint256",
          "name": "maturity",
          "type": "uint256"
        },
        {
          "indexed": true,
          "internalType": "address",
          "name": "sender",
          "type": "address"
        },
        {
          "indexed": true,
          "internalType": "address",
          "name": "assetTo",
          "type": "address"
        },
        {
          "indexed": true,
          "internalType": "address",
          "name": "dueTo",
          "type": "address"
        },
        {
          "indexed": false,
          "internalType": "uint256",
          "name": "assetOut",
          "type": "uint256"
        },
        {
          "indexed": false,
          "internalType": "uint256",
          "name": "id",
          "type": "uint256"
        },
        {
          "components": [
            {
              "internalType": "uint112",
              "name": "debt",
              "type": "uint112"
            },
            {
              "internalType": "uint112",
              "name": "collateral",
              "type": "uint112"
            },
            {
              "internalType": "uint32",
              "name": "startBlock",
              "type": "uint32"
            }
          ],
          "indexed": false,
          "internalType": "struct IPair.Due",
          "name": "dueOut",
          "type": "tuple"
        },
        {
          "indexed": false,
          "internalType": "uint256",
          "name": "feeIn",
          "type": "uint256"
        },
        {
          "indexed": false,
          "internalType": "uint256",
          "name": "protocolFeeIn",
          "type": "uint256"
        },
        {
          "indexed": false,
          "internalType": "uint256",
          "name": "stakingFeeIn",
          "type": "uint256"
        }
      ],
      "name": "Borrow",
      "type": "event"
    },
    {
      "anonymous": false,
      "inputs": [
        {
          "indexed": false,
          "internalType": "uint256",
          "name": "maturity",
          "type": "uint256"
        },
        {
          "indexed": true,
          "internalType": "address",
          "name": "sender",
          "type": "address"
        },
        {
          "indexed": true,
          "internalType": "address",
          "name": "assetTo",
          "type": "address"
        },
        {
          "indexed": true,
          "internalType": "address",
          "name": "collateralTo",
          "type": "address"
        },
        {
          "indexed": false,
          "internalType": "uint256",
          "name": "liquidityIn",
          "type": "uint256"
        },
        {
          "indexed": false,
          "internalType": "uint256",
          "name": "assetOut",
          "type": "uint256"
        },
        {
          "indexed": false,
          "internalType": "uint128",
          "name": "collateralOut",
          "type": "uint128"
        },
        {
          "indexed": false,
          "internalType": "uint256",
          "name": "feeOut",
          "type": "uint256"
        }
      ],
      "name": "Burn",
      "type": "event"
    },
    {
      "anonymous": false,
      "inputs": [
        {
          "indexed": true,
          "internalType": "address",
          "name": "sender",
          "type": "address"
        },
        {
          "indexed": true,
          "internalType": "address",
          "name": "to",
          "type": "address"
        },
        {
          "indexed": false,
          "internalType": "uint256",
          "name": "protocolFeeOut",
          "type": "uint256"
        }
      ],
      "name": "CollectProtocolFee",
      "type": "event"
    },
    {
      "anonymous": false,
      "inputs": [
        {
          "indexed": true,
          "internalType": "address",
          "name": "sender",
          "type": "address"
        },
        {
          "indexed": true,
          "internalType": "address",
          "name": "to",
          "type": "address"
        },
        {
          "indexed": false,
          "internalType": "uint256",
          "name": "stakingFeeOut",
          "type": "uint256"
        }
      ],
      "name": "CollectStakingFee",
      "type": "event"
    },
    {
      "anonymous": false,
      "inputs": [
        {
          "indexed": false,
          "internalType": "uint8",
          "name": "version",
          "type": "uint8"
        }
      ],
      "name": "Initialized",
      "type": "event"
    },
    {
      "anonymous": false,
      "inputs": [
        {
          "indexed": false,
          "internalType": "uint256",
          "name": "maturity",
          "type": "uint256"
        },
        {
          "indexed": true,
          "internalType": "address",
          "name": "sender",
          "type": "address"
        },
        {
          "indexed": true,
          "internalType": "address",
          "name": "loanTo",
          "type": "address"
        },
        {
          "indexed": true,
          "internalType": "address",
          "name": "coverageTo",
          "type": "address"
        },
        {
          "indexed": false,
          "internalType": "uint256",
          "name": "assetIn",
          "type": "uint256"
        },
        {
          "components": [
            {
              "internalType": "uint112",
              "name": "loanPrincipal",
              "type": "uint112"
            },
            {
              "internalType": "uint112",
              "name": "loanInterest",
              "type": "uint112"
            },
            {
              "internalType": "uint112",
              "name": "coveragePrincipal",
              "type": "uint112"
            },
            {
              "internalType": "uint112",
              "name": "coverageInterest",
              "type": "uint112"
            }
          ],
          "indexed": false,
          "internalType": "struct IPair.Claims",
          "name": "claimsOut",
          "type": "tuple"
        },
        {
          "indexed": false,
          "internalType": "uint256",
          "name": "feeIn",
          "type": "uint256"
        },
        {
          "indexed": false,
          "internalType": "uint256",
          "name": "protocolFeeIn",
          "type": "uint256"
        },
        {
          "indexed": false,
          "internalType": "uint256",
          "name": "stakingFeeIn",
          "type": "uint256"
        }
      ],
      "name": "Lend",
      "type": "event"
    },
    {
      "anonymous": false,
      "inputs": [
        {
          "indexed": false,
          "internalType": "uint256",
          "name": "maturity",
          "type": "uint256"
        },
        {
          "indexed": true,
          "internalType": "address",
          "name": "sender",
          "type": "address"
        },
        {
          "indexed": true,
          "internalType": "address",
          "name": "liquidityTo",
          "type": "address"
        },
        {
          "indexed": true,
          "internalType": "address",
          "name": "dueTo",
          "type": "address"
        },
        {
          "indexed": false,
          "internalType": "uint256",
          "name": "assetIn",
          "type": "uint256"
        },
        {
          "indexed": false,
          "internalType": "uint256",
          "name": "liquidityOut",
          "type": "uint256"
        },
        {
          "indexed": false,
          "internalType": "uint256",
          "name": "id",
          "type": "uint256"
        },
        {
          "components": [
            {
              "internalType": "uint112",
              "name": "debt",
              "type": "uint112"
            },
            {
              "internalType": "uint112",
              "name": "collateral",
              "type": "uint112"
            },
            {
              "internalType": "uint32",
              "name": "startBlock",
              "type": "uint32"
            }
          ],
          "indexed": false,
          "internalType": "struct IPair.Due",
          "name": "dueOut",
          "type": "tuple"
        },
        {
          "indexed": false,
          "internalType": "uint256",
          "name": "feeIn",
          "type": "uint256"
        }
      ],
      "name": "Mint",
      "type": "event"
    },
    {
      "anonymous": false,
      "inputs": [
        {
          "indexed": false,
          "internalType": "uint256",
          "name": "maturity",
          "type": "uint256"
        },
        {
          "indexed": true,
          "internalType": "address",
          "name": "sender",
          "type": "address"
        },
        {
          "indexed": true,
          "internalType": "address",
          "name": "to",
          "type": "address"
        },
        {
          "indexed": true,
          "internalType": "address",
          "name": "owner",
          "type": "address"
        },
        {
          "indexed": false,
          "internalType": "uint256[]",
          "name": "duesFullyPaid",
          "type": "uint256[]"
        },
        {
          "indexed": false,
          "internalType": "uint256",
          "name": "assetIn",
          "type": "uint256"
        },
        {
          "indexed": false,
          "internalType": "uint256",
          "name": "collateralOut",
          "type": "uint256"
        }
      ],
      "name": "Pay",
      "type": "event"
    },
    {
      "anonymous": false,
      "inputs": [
        {
          "indexed": true,
          "internalType": "uint256",
          "name": "maturity",
          "type": "uint256"
        },
        {
          "indexed": false,
          "internalType": "uint112",
          "name": "x",
          "type": "uint112"
        },
        {
          "indexed": false,
          "internalType": "uint112",
          "name": "y",
          "type": "uint112"
        },
        {
          "indexed": false,
          "internalType": "uint112",
          "name": "z",
          "type": "uint112"
        }
      ],
      "name": "Sync",
      "type": "event"
    },
    {
      "anonymous": false,
      "inputs": [
        {
          "indexed": false,
          "internalType": "uint256",
          "name": "maturity",
          "type": "uint256"
        },
        {
          "indexed": true,
          "internalType": "address",
          "name": "sender",
          "type": "address"
        },
        {
          "indexed": true,
          "internalType": "address",
          "name": "assetTo",
          "type": "address"
        },
        {
          "indexed": true,
          "internalType": "address",
          "name": "collateralTo",
          "type": "address"
        },
        {
          "components": [
            {
              "internalType": "uint112",
              "name": "loanPrincipal",
              "type": "uint112"
            },
            {
              "internalType": "uint112",
              "name": "loanInterest",
              "type": "uint112"
            },
            {
              "internalType": "uint112",
              "name": "coveragePrincipal",
              "type": "uint112"
            },
            {
              "internalType": "uint112",
              "name": "coverageInterest",
              "type": "uint112"
            }
          ],
          "indexed": false,
          "internalType": "struct IPair.Claims",
          "name": "claimsIn",
          "type": "tuple"
        },
        {
          "components": [
            {
              "internalType": "uint128",
              "name": "asset",
              "type": "uint128"
            },
            {
              "internalType": "uint128",
              "name": "collateral",
              "type": "uint128"
            }
          ],
          "indexed": false,
          "internalType": "struct IPair.Tokens",
          "name": "tokensOut",
          "type": "tuple"
        }
      ],
      "name": "Withdraw",
      "type": "event"
    },
    {
      "inputs": [],
      "name": "asset",
      "outputs": [
        {
          "internalType": "contract IERC20",
          "name": "",
          "type": "address"
        }
      ],
      "stateMutability": "view",
      "type": "function"
    },
    {
      "inputs": [
        {
          "components": [
            {
              "internalType": "uint256",
              "name": "maturity",
              "type": "uint256"
            },
            {
              "internalType": "address",
              "name": "assetTo",
              "type": "address"
            },
            {
              "internalType": "address",
              "name": "dueTo",
              "type": "address"
            },
            {
              "internalType": "uint112",
              "name": "xDecrease",
              "type": "uint112"
            },
            {
              "internalType": "uint112",
              "name": "yIncrease",
              "type": "uint112"
            },
            {
              "internalType": "uint112",
              "name": "zIncrease",
              "type": "uint112"
            },
            {
              "internalType": "bytes",
              "name": "data",
              "type": "bytes"
            }
          ],
          "internalType": "struct IPair.BorrowParam",
          "name": "param",
          "type": "tuple"
        }
      ],
      "name": "borrow",
      "outputs": [
        {
          "internalType": "uint256",
          "name": "assetOut",
          "type": "uint256"
        },
        {
          "internalType": "uint256",
          "name": "id",
          "type": "uint256"
        },
        {
          "components": [
            {
              "internalType": "uint112",
              "name": "debt",
              "type": "uint112"
            },
            {
              "internalType": "uint112",
              "name": "collateral",
              "type": "uint112"
            },
            {
              "internalType": "uint32",
              "name": "startBlock",
              "type": "uint32"
            }
          ],
          "internalType": "struct IPair.Due",
          "name": "dueOut",
          "type": "tuple"
        }
      ],
      "stateMutability": "nonpayable",
      "type": "function"
    },
    {
      "inputs": [
        {
          "components": [
            {
              "internalType": "uint256",
              "name": "maturity",
              "type": "uint256"
            },
            {
              "internalType": "address",
              "name": "assetTo",
              "type": "address"
            },
            {
              "internalType": "address",
              "name": "collateralTo",
              "type": "address"
            },
            {
              "internalType": "uint256",
              "name": "liquidityIn",
              "type": "uint256"
            }
          ],
          "internalType": "struct IPair.BurnParam",
          "name": "param",
          "type": "tuple"
        }
      ],
      "name": "burn",
      "outputs": [
        {
          "internalType": "uint256",
          "name": "assetOut",
          "type": "uint256"
        },
        {
          "internalType": "uint128",
          "name": "collateralOut",
          "type": "uint128"
        }
      ],
      "stateMutability": "nonpayable",
      "type": "function"
    },
    {
      "inputs": [
        {
          "internalType": "uint256",
          "name": "maturity",
          "type": "uint256"
        },
        {
          "internalType": "address",
          "name": "owner",
          "type": "address"
        }
      ],
      "name": "claimsOf",
      "outputs": [
        {
          "components": [
            {
              "internalType": "uint112",
              "name": "loanPrincipal",
              "type": "uint112"
            },
            {
              "internalType": "uint112",
              "name": "loanInterest",
              "type": "uint112"
            },
            {
              "internalType": "uint112",
              "name": "coveragePrincipal",
              "type": "uint112"
            },
            {
              "internalType": "uint112",
              "name": "coverageInterest",
              "type": "uint112"
            }
          ],
          "internalType": "struct IPair.Claims",
          "name": "",
          "type": "tuple"
        }
      ],
      "stateMutability": "view",
      "type": "function"
    },
    {
      "inputs": [],
      "name": "collateral",
      "outputs": [
        {
          "internalType": "contract IERC20",
          "name": "",
          "type": "address"
        }
      ],
      "stateMutability": "view",
      "type": "function"
    },
    {
      "inputs": [
        {
          "internalType": "address",
          "name": "to",
          "type": "address"
        }
      ],
      "name": "collectProtocolFee",
      "outputs": [
        {
          "internalType": "uint256",
          "name": "protocolFeeOut",
          "type": "uint256"
        }
      ],
      "stateMutability": "nonpayable",
      "type": "function"
    },
    {
      "inputs": [
        {
          "internalType": "address",
          "name": "to",
          "type": "address"
        }
      ],
      "name": "collectStakingFee",
      "outputs": [
        {
          "internalType": "uint256",
          "name": "stakingFeeOut",
          "type": "uint256"
        }
      ],
      "stateMutability": "nonpayable",
      "type": "function"
    },
    {
      "inputs": [
        {
          "internalType": "uint256",
          "name": "maturity",
          "type": "uint256"
        }
      ],
      "name": "constantProduct",
      "outputs": [
        {
          "internalType": "uint112",
          "name": "",
          "type": "uint112"
        },
        {
          "internalType": "uint112",
          "name": "",
          "type": "uint112"
        },
        {
          "internalType": "uint112",
          "name": "",
          "type": "uint112"
        }
      ],
      "stateMutability": "view",
      "type": "function"
    },
    {
      "inputs": [
        {
          "internalType": "uint256",
          "name": "maturity",
          "type": "uint256"
        },
        {
          "internalType": "address",
          "name": "owner",
          "type": "address"
        },
        {
          "internalType": "uint256",
          "name": "id",
          "type": "uint256"
        }
      ],
      "name": "dueOf",
      "outputs": [
        {
          "components": [
            {
              "internalType": "uint112",
              "name": "debt",
              "type": "uint112"
            },
            {
              "internalType": "uint112",
              "name": "collateral",
              "type": "uint112"
            },
            {
              "internalType": "uint32",
              "name": "startBlock",
              "type": "uint32"
            }
          ],
          "internalType": "struct IPair.Due",
          "name": "",
          "type": "tuple"
        }
      ],
      "stateMutability": "view",
      "type": "function"
    },
    {
      "inputs": [],
      "name": "factory",
      "outputs": [
        {
          "internalType": "contract IFactory",
          "name": "",
          "type": "address"
        }
      ],
      "stateMutability": "view",
      "type": "function"
    },
    {
      "inputs": [
        {
          "internalType": "contract IERC20",
          "name": "_asset",
          "type": "address"
        },
        {
          "internalType": "contract IERC20",
          "name": "_collateral",
          "type": "address"
        },
        {
          "internalType": "uint16",
          "name": "_lpFee",
          "type": "uint16"
        },
        {
          "internalType": "uint16",
          "name": "_protocolFee",
          "type": "uint16"
        },
        {
          "internalType": "uint16",
          "name": "_stakingFee",
          "type": "uint16"
        }
      ],
      "name": "initialize",
      "outputs": [],
      "stateMutability": "nonpayable",
      "type": "function"
    },
    {
      "inputs": [
        {
          "components": [
            {
              "internalType": "uint256",
              "name": "maturity",
              "type": "uint256"
            },
            {
              "internalType": "address",
              "name": "loanTo",
              "type": "address"
            },
            {
              "internalType": "address",
              "name": "coverageTo",
              "type": "address"
            },
            {
              "internalType": "uint112",
              "name": "xIncrease",
              "type": "uint112"
            },
            {
              "internalType": "uint112",
              "name": "yDecrease",
              "type": "uint112"
            },
            {
              "internalType": "uint112",
              "name": "zDecrease",
              "type": "uint112"
            },
            {
              "internalType": "bytes",
              "name": "data",
              "type": "bytes"
            }
          ],
          "internalType": "struct IPair.LendParam",
          "name": "param",
          "type": "tuple"
        }
      ],
      "name": "lend",
      "outputs": [
        {
          "internalType": "uint256",
          "name": "assetIn",
          "type": "uint256"
        },
        {
          "components": [
            {
              "internalType": "uint112",
              "name": "loanPrincipal",
              "type": "uint112"
            },
            {
              "internalType": "uint112",
              "name": "loanInterest",
              "type": "uint112"
            },
            {
              "internalType": "uint112",
              "name": "coveragePrincipal",
              "type": "uint112"
            },
            {
              "internalType": "uint112",
              "name": "coverageInterest",
              "type": "uint112"
            }
          ],
          "internalType": "struct IPair.Claims",
          "name": "claimsOut",
          "type": "tuple"
        }
      ],
      "stateMutability": "nonpayable",
      "type": "function"
    },
    {
      "inputs": [
        {
          "internalType": "uint256",
          "name": "maturity",
          "type": "uint256"
        },
        {
          "internalType": "address",
          "name": "owner",
          "type": "address"
        }
      ],
      "name": "liquidityOf",
      "outputs": [
        {
          "internalType": "uint256",
          "name": "",
          "type": "uint256"
        }
      ],
      "stateMutability": "view",
      "type": "function"
    },
    {
      "inputs": [],
      "name": "lpFee",
      "outputs": [
        {
          "internalType": "uint256",
          "name": "",
          "type": "uint256"
        }
      ],
      "stateMutability": "view",
      "type": "function"
    },
    {
      "inputs": [
        {
          "internalType": "uint256",
          "name": "maturity",
          "type": "uint256"
        }
      ],
      "name": "lpFeeStored",
      "outputs": [
        {
          "internalType": "uint256",
          "name": "",
          "type": "uint256"
        }
      ],
      "stateMutability": "view",
      "type": "function"
    },
    {
      "inputs": [
        {
          "components": [
            {
              "internalType": "uint256",
              "name": "maturity",
              "type": "uint256"
            },
            {
              "internalType": "address",
              "name": "liquidityTo",
              "type": "address"
            },
            {
              "internalType": "address",
              "name": "dueTo",
              "type": "address"
            },
            {
              "internalType": "uint112",
              "name": "xIncrease",
              "type": "uint112"
            },
            {
              "internalType": "uint112",
              "name": "yIncrease",
              "type": "uint112"
            },
            {
              "internalType": "uint112",
              "name": "zIncrease",
              "type": "uint112"
            },
            {
              "internalType": "bytes",
              "name": "data",
              "type": "bytes"
            }
          ],
          "internalType": "struct IPair.MintParam",
          "name": "param",
          "type": "tuple"
        }
      ],
      "name": "mint",
      "outputs": [
        {
          "internalType": "uint256",
          "name": "assetIn",
          "type": "uint256"
        },
        {
          "internalType": "uint256",
          "name": "liquidityOut",
          "type": "uint256"
        },
        {
          "internalType": "uint256",
          "name": "id",
          "type": "uint256"
        },
        {
          "components": [
            {
              "internalType": "uint112",
              "name": "debt",
              "type": "uint112"
            },
            {
              "internalType": "uint112",
              "name": "collateral",
              "type": "uint112"
            },
            {
              "internalType": "uint32",
              "name": "startBlock",
              "type": "uint32"
            }
          ],
          "internalType": "struct IPair.Due",
          "name": "dueOut",
          "type": "tuple"
        }
      ],
      "stateMutability": "nonpayable",
      "type": "function"
    },
    {
      "inputs": [
        {
          "components": [
            {
              "internalType": "uint256",
              "name": "maturity",
              "type": "uint256"
            },
            {
              "internalType": "address",
              "name": "to",
              "type": "address"
            },
            {
              "internalType": "address",
              "name": "owner",
              "type": "address"
            },
            {
              "internalType": "uint256[]",
              "name": "ids",
              "type": "uint256[]"
            },
            {
              "internalType": "uint112[]",
              "name": "assetsIn",
              "type": "uint112[]"
            },
            {
              "internalType": "uint112[]",
              "name": "collateralsOut",
              "type": "uint112[]"
            },
            {
              "internalType": "bytes",
              "name": "data",
              "type": "bytes"
            }
          ],
          "internalType": "struct IPair.PayParam",
          "name": "param",
          "type": "tuple"
        }
      ],
      "name": "pay",
      "outputs": [
        {
          "internalType": "uint128",
          "name": "assetIn",
          "type": "uint128"
        },
        {
          "internalType": "uint128",
          "name": "collateralOut",
          "type": "uint128"
        },
        {
          "internalType": "uint256[]",
          "name": "duesFullyPaid",
          "type": "uint256[]"
        }
      ],
      "stateMutability": "nonpayable",
      "type": "function"
    },
    {
      "inputs": [],
      "name": "protocolFee",
      "outputs": [
        {
          "internalType": "uint256",
          "name": "",
          "type": "uint256"
        }
      ],
      "stateMutability": "view",
      "type": "function"
    },
    {
      "inputs": [],
      "name": "protocolFeeStored",
      "outputs": [
        {
          "internalType": "uint256",
          "name": "",
          "type": "uint256"
        }
      ],
      "stateMutability": "view",
      "type": "function"
    },
    {
      "inputs": [],
      "name": "stakingFee",
      "outputs": [
        {
          "internalType": "uint256",
          "name": "",
          "type": "uint256"
        }
      ],
      "stateMutability": "view",
      "type": "function"
    },
    {
      "inputs": [],
      "name": "stakingFeeStored",
      "outputs": [
        {
          "internalType": "uint256",
          "name": "",
          "type": "uint256"
        }
      ],
      "stateMutability": "view",
      "type": "function"
    },
    {
      "inputs": [
        {
          "internalType": "uint256",
          "name": "maturity",
          "type": "uint256"
        }
      ],
      "name": "totalClaims",
      "outputs": [
        {
          "components": [
            {
              "internalType": "uint112",
              "name": "loanPrincipal",
              "type": "uint112"
            },
            {
              "internalType": "uint112",
              "name": "loanInterest",
              "type": "uint112"
            },
            {
              "internalType": "uint112",
              "name": "coveragePrincipal",
              "type": "uint112"
            },
            {
              "internalType": "uint112",
              "name": "coverageInterest",
              "type": "uint112"
            }
          ],
          "internalType": "struct IPair.Claims",
          "name": "",
          "type": "tuple"
        }
      ],
      "stateMutability": "view",
      "type": "function"
    },
    {
      "inputs": [
        {
          "internalType": "uint256",
          "name": "maturity",
          "type": "uint256"
        }
      ],
      "name": "totalDebtCreated",
      "outputs": [
        {
          "internalType": "uint120",
          "name": "",
          "type": "uint120"
        }
      ],
      "stateMutability": "view",
      "type": "function"
    },
    {
      "inputs": [
        {
          "internalType": "uint256",
          "name": "maturity",
          "type": "uint256"
        },
        {
          "internalType": "address",
          "name": "owner",
          "type": "address"
        }
      ],
      "name": "totalDuesOf",
      "outputs": [
        {
          "internalType": "uint256",
          "name": "",
          "type": "uint256"
        }
      ],
      "stateMutability": "view",
      "type": "function"
    },
    {
      "inputs": [
        {
          "internalType": "uint256",
          "name": "maturity",
          "type": "uint256"
        }
      ],
      "name": "totalLiquidity",
      "outputs": [
        {
          "internalType": "uint256",
          "name": "",
          "type": "uint256"
        }
      ],
      "stateMutability": "view",
      "type": "function"
    },
    {
      "inputs": [
        {
          "internalType": "uint256",
          "name": "maturity",
          "type": "uint256"
        }
      ],
      "name": "totalReserves",
      "outputs": [
        {
          "components": [
            {
              "internalType": "uint128",
              "name": "asset",
              "type": "uint128"
            },
            {
              "internalType": "uint128",
              "name": "collateral",
              "type": "uint128"
            }
          ],
          "internalType": "struct IPair.Tokens",
          "name": "",
          "type": "tuple"
        }
      ],
      "stateMutability": "view",
      "type": "function"
    },
    {
      "inputs": [
        {
          "components": [
            {
              "internalType": "uint256",
              "name": "maturity",
              "type": "uint256"
            },
            {
              "internalType": "address",
              "name": "assetTo",
              "type": "address"
            },
            {
              "internalType": "address",
              "name": "collateralTo",
              "type": "address"
            },
            {
              "components": [
                {
                  "internalType": "uint112",
                  "name": "loanPrincipal",
                  "type": "uint112"
                },
                {
                  "internalType": "uint112",
                  "name": "loanInterest",
                  "type": "uint112"
                },
                {
                  "internalType": "uint112",
                  "name": "coveragePrincipal",
                  "type": "uint112"
                },
                {
                  "internalType": "uint112",
                  "name": "coverageInterest",
                  "type": "uint112"
                }
              ],
              "internalType": "struct IPair.Claims",
              "name": "claimsIn",
              "type": "tuple"
            }
          ],
          "internalType": "struct IPair.WithdrawParam",
          "name": "param",
          "type": "tuple"
        }
      ],
      "name": "withdraw",
      "outputs": [
        {
          "components": [
            {
              "internalType": "uint128",
              "name": "asset",
              "type": "uint128"
            },
            {
              "internalType": "uint128",
              "name": "collateral",
              "type": "uint128"
            }
          ],
          "internalType": "struct IPair.Tokens",
          "name": "tokensOut",
          "type": "tuple"
        }
      ],
      "stateMutability": "nonpayable",
      "type": "function"
    }
  ],
  "transactionHash": "0x428c6fd85c5c92763492c032c1971c23d7015f6cd160c6d7fc76a59ca7f79b38",
  "args": [],
  "numDeployments": 1,
  "solcInputHash": "b465f702f80a9d9e2aac6ff945d6dd81",
  "bytecode": "0x608060405234801561001057600080fd5b50614d83806100206000396000f3fe608060405234801561001057600080fd5b50600436106101a95760003560e01c8063a7a7b224116100f9578063bbc538fb11610097578063c88a1d3411610071578063c88a1d34146106b9578063d8dfeb45146106c2578063e97b7cc0146106d5578063eff98843146106f757600080fd5b8063bbc538fb146105ea578063c0eb96e814610676578063c45a0155146106a657600080fd5b8063b0e21e8a116100d3578063b0e21e8a146103ee578063b5e60c3c146103f7578063b77ee8391461041a578063baadc6fe146104c757600080fd5b8063a7a7b22414610373578063aae6fcb414610394578063b064fb3f146103b457600080fd5b806357a3542e11610166578063704ce43e11610140578063704ce43e1461032157806381e6f6d11461032a57806393910a681461033d578063a440fef91461036057600080fd5b806357a3542e146102b257806357cb2640146102d457806360553a09146102dd57600080fd5b806306af49eb146101ae57806309c8b1ab146101d45780630f79fca5146101f75780631eb9cd431461020a578063295b0f241461027257806338d52e0f14610287575b600080fd5b6101c16101bc366004614075565b610700565b6040519081526020015b60405180910390f35b6101c16101e2366004614092565b6000908152603b602052604090206001015490565b6101c16102053660046140ab565b610869565b610265610218366004614092565b6040805180820190915260008082526020820152506000908152603b60209081526040918290208251808401909352546001600160801b038082168452600160801b909104169082015290565b6040516101cb91906140db565b610285610280366004614111565b610896565b005b60345461029a906001600160a01b031681565b6040516001600160a01b0390911681526020016101cb565b6102c56102c0366004614192565b6109fa565b6040516101cb939291906141f6565b6101c160395481565b6103096102eb366004614092565b6000908152603b60205260409020600501546001600160781b031690565b6040516001600160781b0390911681526020016101cb565b6101c160365481565b610265610338366004614211565b6111aa565b61035061034b366004614192565b611948565b6040516101cb949392919061422d565b6101c161036e366004614075565b6120d8565b610386610381366004614192565b612226565b6040516101cb92919061428b565b6103a76103a236600461429f565b612b25565b6040516101cb91906142d7565b6101c16103c23660046140ab565b6000828152603b602090815260408083206001600160a01b038516845260090190915290205492915050565b6101c160375481565b6101c1610405366004614092565b6000908152603b602052604090206002015490565b6104ba6104283660046140ab565b604080516080810182526000808252602082018190529181018290526060810191909152506000828152603b602090815260408083206001600160a01b0385168452600801825291829020825160808101845281546001600160701b038082168352600160701b9182900481169483019490945260019092015480841694820194909452920416606082015292915050565b6040516101cb91906142e5565b6105c06104d5366004614092565b6000908152603b602090815260409182902082516101408101845281546001600160801b038082166101008401908152600160801b90920416610120830152815260018201548184015260028201548185015283516080808201865260038401546001600160701b038082168452600160701b9182900481169684019690965260048501548087169784019790975295869004851660608084019190915283019190915260058301546001600160781b03811691830191909152600160781b9004831660a0820181905260069092015480841660c0830181905294900490921660e090920182905292565b604080516001600160701b03948516815292841660208401529216918101919091526060016101cb565b6104ba6105f8366004614092565b604080516080810182526000808252602082018190529181018290526060810191909152506000908152603b6020908152604091829020825160808101845260038201546001600160701b038082168352600160701b9182900481169483019490945260049092015480841694820194909452920416606082015290565b6106896106843660046142f3565b612bc8565b604080519283526001600160801b039091166020830152016101cb565b60335461029a906001600160a01b031681565b6101c1603a5481565b60355461029a906001600160a01b031681565b6106e86106e3366004614192565b613149565b6040516101cb93929190614340565b6101c160385481565b600061070a613862565b603360009054906101000a90046001600160a01b03166001600160a01b03166384b171596040518163ffffffff1660e01b8152600401602060405180830381865afa15801561075d573d6000803e3d6000fd5b505050506040513d601f19601f82011682018060405250810190610781919061436c565b6001600160a01b0316336001600160a01b0316146107d35760405162461bcd60e51b81526004016107ca9060208082526004908201526308a6462760e31b604082015260600190565b60405180910390fd5b6001600160a01b0382166107f95760405162461bcd60e51b81526004016107ca90614389565b50603a8054600090915560345461081a906001600160a01b031683836138bb565b6040518181526001600160a01b0383169033907fa667cae3d0fe381afe349907aa6ae5af74ea961807124b60a78568bc2ad825be906020015b60405180910390a361086460018055565b919050565b6000828152603b602090815260408083206001600160a01b03851684526007019091529020545b92915050565b600054610100900460ff16158080156108b65750600054600160ff909116105b806108d05750303b1580156108d0575060005460ff166001145b6109335760405162461bcd60e51b815260206004820152602e60248201527f496e697469616c697a61626c653a20636f6e747261637420697320616c72656160448201526d191e481a5b9a5d1a585b1a5e995960921b60648201526084016107ca565b6000805460ff191660011790558015610956576000805461ff0019166101001790555b61095e613918565b60338054336001600160a01b0319918216179091556034805482166001600160a01b03898116919091179091556035805490921690871617905561ffff848116603655838116603755821660385580156109f2576000805461ff0019169055604051600181527f7f26b83ff96e1f2b6a682f133852f6798a09c465da95921460cefb38474024989060200160405180910390a15b505050505050565b604080516060810182526000808252602082018190529181018290528190610a20613862565b83354210610a405760405162461bcd60e51b81526004016107ca906143a7565b6000610a526040860160208701614075565b6001600160a01b031603610a785760405162461bcd60e51b81526004016107ca90614389565b6000610a8a6060860160408701614075565b6001600160a01b031603610ab05760405162461bcd60e51b81526004016107ca90614389565b30610ac16040860160208701614075565b6001600160a01b031603610ae75760405162461bcd60e51b81526004016107ca906143c5565b30610af86060860160408701614075565b6001600160a01b031603610b1e5760405162461bcd60e51b81526004016107ca906143c5565b610b2e60808501606086016143f8565b6001600160701b0316600003610b565760405162461bcd60e51b81526004016107ca90614415565b83356000908152603b6020908152604080832081516101408101835281546001600160801b038082166101008401908152600160801b909204166101208301528152600182015481850152600282015481840190815283516080808201865260038501546001600160701b038082168452600160701b9182900481169884019890985260048601548089169784019790975295869004871660608381019190915284019190915260058401546001600160781b03811691840191909152600160781b9004851660a0830152600683015480861660c08401529390930490931660e08401529051909203610c5b5760405162461bcd60e51b81526004016107ca90614433565b600080807350522Af0679A602018c30751B20CeFE5b434C7756353c52ef18a3587610c8c60808e0160608f016143f8565b8d6080016020810190610c9f91906143f8565b8e60a0016020810190610cb291906143f8565b6036546037546038546040518963ffffffff1660e01b8152600401610cde9897969594939291906144f2565b60c060405180830381865af4158015610cfb573d6000803e3d6000fd5b505050506040513d601f19601f82011682018060405250810190610d1f91906145ed565b602088018051949a5092965090945092508491610d3d908390614641565b90525060398054839190600090610d55908490614641565b9250508190555080603a6000828254610d6e9190614641565b90915550610e14905086600987016000610d8e60608e0160408f01614075565b6001600160a01b0316815260208101919091526040016000209081546001810183556000928352602092839020825190820180549484015160409094015163ffffffff16600160e01b026001600160e01b036001600160701b03958616600160701b026001600160e01b0319909716959093169490941794909417169190911790915590565b9650610e2660808a0160608b016143f8565b6001600160701b03168460000151600001818151610e449190614654565b6001600160801b0316905250602080870151855190910180516001600160701b0390921691610e7490839061467b565b6001600160801b031690525085516080850180516001600160701b0390921691610e9f90839061469b565b6001600160781b0316905250610ebb60808a0160608b016143f8565b8460a001818151610ecc91906146bb565b6001600160701b0316905250610ee860a08a0160808b016143f8565b8460c001818151610ef991906146db565b6001600160701b0316905250610f1560c08a0160a08b016143f8565b8460e001818151610f2691906146db565b6001600160701b03908116909152855180516020918201516001600160801b03918216600160801b929091169190910217885580870151600189015560408088015160028a0155606080890151805160038c018054958301519187166001600160e01b031996871617600160701b92881683021790559281015160048c018054928401519187169286169290921790861684021790556080808a015160058c01805460a08d01516001600160781b039093166001600160e81b031990911617600160781b9288169290920291909117905560c08a015160068c01805460e08d015192881696169590951795169092029390931790915561102b92508b01908b016143f8565b6001600160701b0316975061104083896146fb565b975061104c82896146fb565b975061105881896146fb565b975061108061106d60408b0160208c01614075565b6034546001600160a01b0316908a6138bb565b60355460208701516110a8916001600160a01b0316906110a360c08d018d61470e565b613949565b6005850154600686015460408051600160781b9093046001600160701b0390811684528083166020850152600160701b909204909116908201528935907f1147bcb0e71ebff15e66fd21a23234fe9acc1891f46595062d71501b0cacbdaa9060600160405180910390a261112260608a0160408b01614075565b6001600160a01b031661113b60408b0160208c01614075565b6001600160a01b0316336001600160a01b03167f82a3d6c8af852cdba73769f6c2f1157ecb844b51d9051dfc6178716ed6386b248c600001358c8c8c8a8a8a60405161118d979695949392919061475c565b60405180910390a450505050506111a360018055565b9193909250565b60408051808201909152600080825260208201526111c6613862565b81354210156112005760405162461bcd60e51b81526004016107ca906020808252600490820152634532303360e01b604082015260600190565b60006112126040840160208501614075565b6001600160a01b0316036112385760405162461bcd60e51b81526004016107ca90614389565b600061124a6060840160408501614075565b6001600160a01b0316036112705760405162461bcd60e51b81526004016107ca90614389565b306112816040840160208501614075565b6001600160a01b0316036112a75760405162461bcd60e51b81526004016107ca906143c5565b306112b86060840160408501614075565b6001600160a01b0316036112de5760405162461bcd60e51b81526004016107ca906143c5565b6112ee60808301606084016143f8565b6001600160701b031615158061131b575061130f60a08301608084016143f8565b6001600160701b031615155b8061133d575061133160c0830160a084016143f8565b6001600160701b031615155b8061135f575061135360e0830160c084016143f8565b6001600160701b031615155b61137b5760405162461bcd60e51b81526004016107ca90614415565b81356000908152603b602090815260409182902082516101408101845281546001600160801b038082166101008401908152600160801b90920416610120830152815260018201548184015260028201548185015283516080808201865260038401546001600160701b038082168452600160701b91829004811696840196909652600480860154808816858a015282900487166060858101919091528086019490945260058601546001600160781b03811693860193909352600160781b909204861660a0850152600685015480871660c08601520490941660e083015293516317db9b6b60e01b8152919390927350522Af0679A602018c30751B20CeFE5b434C775926317db9b6b92611496928792918a019101614801565b6040805180830381865af41580156114b2573d6000803e3d6000fd5b505050506040513d601f19601f820116820180604052508101906114d69190614835565b92506114e860808501606086016143f8565b606082015180516114fa9083906146bb565b6001600160701b031690525061151660a08501608086016143f8565b816060015160200181815161152b91906146bb565b6001600160701b031690525061154760c0850160a086016143f8565b816060015160400181815161155c91906146bb565b6001600160701b031690525061157860e0850160c086016143f8565b816060015160600181815161158d91906146bb565b6001600160701b0390811690915233600090815260088501602090815260409182902082516080808201855282548087168352600160701b908190048716948301949094526001909201548086169482019490945291909204909216606080840191909152919250611604919087019087016143f8565b815182906116139083906146bb565b6001600160701b031690525061162f60a08601608087016143f8565b8160200181815161164091906146bb565b6001600160701b031690525061165c60c0860160a087016143f8565b8160400181815161166d91906146bb565b6001600160701b031690525061168960e0860160c087016143f8565b8160600181815161169a91906146bb565b6001600160701b0390811690915233600090815260088601602090815260409182902085518154928701519085166001600160e01b031993841617600160701b91861682021782559286015160019091018054606088015192861693169290921793169091029190911790555083516001600160801b03161561176557835182518051611728908390614654565b6001600160801b03169052506117656117476040870160208801614075565b85516034546001600160a01b031691906001600160801b03166138bb565b60208401516001600160801b0316156117d257836020015182600001516020018181516117929190614654565b6001600160801b03169052506117d26117b16060870160408801614075565b60208601516035546001600160a01b031691906001600160801b03166138bb565b815180516020918201516001600160801b03918216600160801b929091169190910217845580830151600185015560408084015160028601556060808501518051600388018054958301516001600160701b039283166001600160e01b031997881617600160701b9184168202179091558285015160048a0180549486015191841694881694909417908316820217909255608087015160058901805460a08a01516001600160781b039093166001600160e81b031990911617600160781b9284169290920291909117905560c087015160068901805460e08a01519284169716969096179116909102179092556118ce918701908701614075565b6001600160a01b03166118e76040870160208801614075565b6001600160a01b0316336001600160a01b03167fd3240d81c413bb3991c962b2f29da128e2d22cd3f040b2bfe14f0d2a3d0199a2886000013589606001896040516119349392919061489e565b60405180910390a450505061086460018055565b6040805160608101825260008082526020820181905291810182905281908190611970613862565b843542106119905760405162461bcd60e51b81526004016107ca906143a7565b64010000000042863503106119d05760405162461bcd60e51b81526004016107ca9060208082526004908201526308a6460760e31b604082015260600190565b60006119e26040870160208801614075565b6001600160a01b031603611a085760405162461bcd60e51b81526004016107ca90614389565b6000611a1a6060870160408801614075565b6001600160a01b031603611a405760405162461bcd60e51b81526004016107ca90614389565b30611a516040870160208801614075565b6001600160a01b031603611a775760405162461bcd60e51b81526004016107ca906143c5565b30611a886060870160408801614075565b6001600160a01b031603611aae5760405162461bcd60e51b81526004016107ca906143c5565b611abe60808601606087016143f8565b6001600160701b0316600003611ae65760405162461bcd60e51b81526004016107ca90614415565b611af660a08601608087016143f8565b6001600160701b0316600003611b1e5760405162461bcd60e51b81526004016107ca90614415565b611b2e60c0860160a087016143f8565b6001600160701b0316600003611b565760405162461bcd60e51b81526004016107ca90614415565b84356000818152603b6020908152604080832081516101408101835281546001600160801b038082166101008401908152600160801b90920416610120830152815260018201548185015260028201548184015282516080808201855260038401546001600160701b038082168452600160701b918290048116978401979097526004850154808816968401969096529485900486166060838101919091528084019290925260058401546001600160781b03811682850152600160781b9004861660a0840152600684015480871660c08501529490940490941660e082015290949093927350522Af0679A602018c30751B20CeFE5b434C775926397b3791492918791611c6991908e01908e016143f8565b611c7960a08e0160808f016143f8565b8d60a0016020810190611c8c91906143f8565b6040518663ffffffff1660e01b8152600401611cac9594939291906148d4565b60a060405180830381865af4158015611cc9573d6000803e3d6000fd5b505050506040513d601f19601f82011682018060405250810190611ced9190614915565b919750945090506000869003611d2e5760405162461bcd60e51b81526004016107ca906020808252600490820152632299189960e11b604082015260600190565b8582604001818151611d409190614641565b90525085600784016000611d5a60408c0160208d01614075565b6001600160a01b03166001600160a01b031681526020019081526020016000206000828254611d899190614641565b925050819055508082602001818151611da29190614641565b905250611db56080890160608a016143f8565b6001600160701b03168260000151600001818151611dd3919061467b565b6001600160801b0316905250602080850151835190910180516001600160701b0390921691611e0390839061467b565b6001600160801b0316905250611e1f6080890160608a016143f8565b8260a001818151611e3091906146db565b6001600160701b0316905250611e4c60a0890160808a016143f8565b8260c001818151611e5d91906146db565b6001600160701b0316905250611e7960c0890160a08a016143f8565b8260e001818151611e8a91906146db565b6001600160701b03908116909152835180516020918201516001600160801b03918216600160801b92909116919091021786558085015160018701556040808601516002880155606080870151805160038a018054958301519187166001600160e01b031996871617600160701b92881683021790559281015160048a0180549284015191871692861692909217908616840217905560808088015160058a01805460a08b01516001600160781b039093166001600160e81b031990911617600160781b9288169290920291909117905560c088015160068a01805460e08b0151928816961695909517951690920293909317909155611f8f92508a01908a016143f8565b6001600160701b03169650611fa48188614641565b6034546035546020870151929950611fda926001600160a01b0392831692909116908a90611fd560c08e018e61470e565b613a1a565b6005830154600684015460408051600160781b9093046001600160701b0390811684528083166020850152600160701b909204909116908201528835907f1147bcb0e71ebff15e66fd21a23234fe9acc1891f46595062d71501b0cacbdaa9060600160405180910390a26120546060890160408a01614075565b6001600160a01b031661206d60408a0160208b01614075565b6001600160a01b0316336001600160a01b03167f88018ff4a4eb65189878e69e43401baaf50cfe5cdc5d0412a32f646d193b88f68b600001358b8b8b8b896040516120bd9695949392919061494b565b60405180910390a45050506120d160018055565b9193509193565b60006120e2613862565b603360009054906101000a90046001600160a01b03166001600160a01b031663850a15016040518163ffffffff1660e01b8152600401602060405180830381865afa158015612135573d6000803e3d6000fd5b505050506040513d601f19601f82011682018060405250810190612159919061436c565b6001600160a01b0316336001600160a01b0316146121a25760405162461bcd60e51b81526004016107ca906020808252600490820152632299189b60e11b604082015260600190565b6001600160a01b0382166121c85760405162461bcd60e51b81526004016107ca90614389565b506039805460009091556034546121e9906001600160a01b031683836138bb565b6040518181526001600160a01b0383169033907fbea3eebc02d46c3713e32d2ca6ab0ee1698c47e76cd1bd7707794dcea8bf56f190602001610853565b6040805160808101825260008082526020820181905291810182905260608101829052612251613862565b823542106122715760405162461bcd60e51b81526004016107ca906143a7565b60006122836040850160208601614075565b6001600160a01b0316036122a95760405162461bcd60e51b81526004016107ca90614389565b60006122bb6060850160408601614075565b6001600160a01b0316036122e15760405162461bcd60e51b81526004016107ca90614389565b306122f26040850160208601614075565b6001600160a01b0316036123185760405162461bcd60e51b81526004016107ca906143c5565b306123296060850160408601614075565b6001600160a01b03160361234f5760405162461bcd60e51b81526004016107ca906143c5565b61235f60808401606085016143f8565b6001600160701b03166000036123875760405162461bcd60e51b81526004016107ca90614415565b82356000908152603b6020908152604080832081516101408101835281546001600160801b038082166101008401908152600160801b909204166101208301528152600182015481850152600282015481840190815283516080808201865260038501546001600160701b038082168452600160701b9182900481169884019890985260048601548089169784019790975295869004871660608381019190915284019190915260058401546001600160781b03811691840191909152600160781b9004851660a0830152600683015480861660c08401529390930490931660e0840152905190920361248c5760405162461bcd60e51b81526004016107ca90614433565b600080807350522Af0679A602018c30751B20CeFE5b434C775633be5a4d78935876124bd60808d0160608e016143f8565b6124cd60a08e0160808f016143f8565b8d60a00160208101906124e091906143f8565b6036546037546038546040518963ffffffff1660e01b815260040161250c9897969594939291906144f2565b60e060405180830381865af4158015612529573d6000803e3d6000fd5b505050506040513d601f19601f8201168201806040525081019061254d9190614987565b602088018051949a509296509094509250849161256b908390614641565b90525060398054839190600090612583908490614641565b9250508190555080603a600082825461259c9190614641565b90915550508551606085015180516125b59083906146db565b6001600160701b0316905250602080870151606086015190910180516125dc9083906146db565b6001600160701b0316905250604080870151606086015190910180516126039083906146db565b6001600160701b03169052506060808701518582015190910180516126299083906146db565b6001600160701b0316905250855160088601600061264d60408c0160208d01614075565b6001600160a01b031681526020810191909152604001600090812080549091906126819084906001600160701b03166146db565b92506101000a8154816001600160701b0302191690836001600160701b0316021790555085602001518560080160008a60200160208101906126c39190614075565b6001600160a01b0316815260208101919091526040016000208054600e906126fc908490600160701b90046001600160701b03166146db565b92506101000a8154816001600160701b0302191690836001600160701b0316021790555085604001518560080160008a604001602081019061273e9190614075565b6001600160a01b031681526020810191909152604001600090812060010180549091906127759084906001600160701b03166146db565b92506101000a8154816001600160701b0302191690836001600160701b0316021790555085606001518560080160008a60400160208101906127b79190614075565b6001600160a01b0316815260208101919091526040016000206001018054600e906127f3908490600160701b90046001600160701b03166146db565b92506101000a8154816001600160701b0302191690836001600160701b0316021790555087606001602081019061282a91906143f8565b6001600160701b03168460000151600001818151612848919061467b565b6001600160801b03169052506128646080890160608a016143f8565b8460a00181815161287591906146db565b6001600160701b031690525061289160a0890160808a016143f8565b8460c0018181516128a291906146bb565b6001600160701b03169052506128be60c0890160a08a016143f8565b8460e0018181516128cf91906146bb565b6001600160701b03908116909152855180516020918201516001600160801b03918216600160801b929091169190910217885580870151600189015560408088015160028a0155606080890151805160038c018054958301519187166001600160e01b031996871617600160701b92881683021790559281015160048c018054928401519187169286169290921790861684021790556080808a015160058c01805460a08d01516001600160781b039093166001600160e81b031990911617600160781b9288169290920291909117905560c08a015160068c01805460e08d01519288169616959095179516909202939093179091556129d492508a01908a016143f8565b6001600160701b031696506129e98388614641565b96506129f58288614641565b9650612a018188614641565b603454909750612a27906001600160a01b031688612a2260c08c018c61470e565b613b67565b6005850154600686015460408051600160781b9093046001600160701b0390811684528083166020850152600160701b909204909116908201528835907f1147bcb0e71ebff15e66fd21a23234fe9acc1891f46595062d71501b0cacbdaa9060600160405180910390a2612aa16060890160408a01614075565b6001600160a01b0316612aba60408a0160208b01614075565b6001600160a01b0316336001600160a01b03167f5dba5a105c9917cd30912f0b306a64f44963601650a1f04f93bb2891a96ba0258b600001358b8b898989604051612b0a96959493929190614a45565b60405180910390a45050505050612b2060018055565b915091565b6040805160608101825260008082526020808301829052828401829052868252603b81528382206001600160a01b0387168352600901905291909120805483908110612b7357612b73614a7f565b60009182526020918290206040805160608101825291909201546001600160701b038082168352600160701b8204169382019390935263ffffffff600160e01b909304929092169082015290505b9392505050565b600080612bd3613862565b8235421015612c0d5760405162461bcd60e51b81526004016107ca906020808252600490820152634532303360e01b604082015260600190565b6000612c1f6040850160208601614075565b6001600160a01b031603612c455760405162461bcd60e51b81526004016107ca90614389565b6000612c576060850160408601614075565b6001600160a01b031603612c7d5760405162461bcd60e51b81526004016107ca90614389565b30612c8e6040850160208601614075565b6001600160a01b031603612cb45760405162461bcd60e51b81526004016107ca906143c5565b30612cc56060850160408601614075565b6001600160a01b031603612ceb5760405162461bcd60e51b81526004016107ca906143c5565b8260600135600003612d0f5760405162461bcd60e51b81526004016107ca90614415565b82356000908152603b6020908152604080832081516101408101835281546001600160801b038082166101008401908152600160801b909204166101208301528152600182015481850152600282015481840190815283516080808201865260038501546001600160701b038082168452600160701b9182900481169884019890985260048601548089169784019790975295869004871660608381019190915284019190915260058401546001600160781b03811691840191909152600160781b9004851660a0830152600683015480861660c08401529390930490931660e08401529051909203612e145760405162461bcd60e51b81526004016107ca90614433565b60405163029b65e160e41b815260009081907350522Af0679A602018c30751B20CeFE5b434C775906329b65e1090612e5690879060608c013590600401614a95565b606060405180830381865af4158015612e73573d6000803e3d6000fd5b505050506040513d601f19601f82011682018060405250810190612e979190614ab2565b604086018051929850929450925060608901359190612eb79083906146fb565b9052503360009081526007850160205260408120805460608a01359290612edf9084906146fb565b90915550506001600160801b0382169550612efa8187614641565b95508515612f5d5782518051839190612f14908390614654565b6001600160801b0316905250602083018051829190612f349083906146fb565b905250612f5d612f4a6040890160208a01614075565b6034546001600160a01b031690886138bb565b6001600160801b03851615612fbd57848360000151602001818151612f829190614654565b6001600160801b0316905250612fbd612fa16060890160408a01614075565b6035546001600160a01b0316906001600160801b0388166138bb565b825180516020918201516001600160801b03918216600160801b929091169190910217855580840151600186015560408085015160028701556060808601518051600389018054958301516001600160701b039283166001600160e01b031997881617600160701b9184168202179091558285015160048b0180549486015191841694881694909417908316820217909255608088015160058a01805460a08b01516001600160781b039093166001600160e81b031990911617600160781b9284169290920291909117905560c088015160068a01805460e08b01519284169716969096179116909102179092556130b9918901908901614075565b6001600160a01b03166130d26040890160208a01614075565b604080518a3581526060808c013560208301528183018b90526001600160801b038a16908201526080810185905290516001600160a01b03929092169133917fe29621344001b5bbfbfa920bf7ad2b10cb37ac862596010c0c9e813e65ed344f919081900360a00190a450505050612b2060018055565b6000806060613156613862565b833542106131765760405162461bcd60e51b81526004016107ca906143a7565b60006131886060860160408701614075565b6001600160a01b0316036131ae5760405162461bcd60e51b81526004016107ca90614389565b60006131c06040860160208701614075565b6001600160a01b0316036131e65760405162461bcd60e51b81526004016107ca90614389565b306131f76040860160208701614075565b6001600160a01b03160361321d5760405162461bcd60e51b81526004016107ca906143c5565b600061322c6060860186614aee565b915061323d90506080860186614aee565b9050811461325d5760405162461bcd60e51b81526004016107ca90614415565b61326a60a0860186614aee565b9050811461328a5760405162461bcd60e51b81526004016107ca90614415565b84356000908152603b60205260408082209190600983019082906132b49060608b01908b01614075565b6001600160a01b03168152602081019190915260400160002080549091508311156132f15760405162461bcd60e51b81526004016107ca90614415565b60008367ffffffffffffffff81111561330c5761330c614548565b604051908082528060200260200182016040528015613335578160200160208202803683370190505b5090506000805b858110156136645760008461335460608d018d614aee565b8481811061336457613364614a7f565b905060200201358154811061337b5761337b614a7f565b90600052602060002001905061338e4390565b815463ffffffff918216600160e01b909104909116036133d95760405162461bcd60e51b81526004016107ca906020808252600490820152634532303760e01b604082015260600190565b60006133e860808d018d614aee565b848181106133f8576133f8614a7f565b905060200201602081019061340d91906143f8565b9050600061341e60a08e018e614aee565b8581811061342e5761342e614a7f565b905060200201602081019061344391906143f8565b9050336001600160a01b03168d60400160208101906134629190614075565b6001600160a01b0316146134b0576001600160701b038116156134b05760405162461bcd60e51b81526004016107ca906020808252600490820152634532313360e01b604082015260600190565b82546134c9906001600160701b03908116908316614b38565b83546134e9906001600160701b03600160701b9091048116908516614b38565b10156135205760405162461bcd60e51b81526004016107ca906020808252600490820152634533303360e01b604082015260600190565b82548290849060009061353d9084906001600160701b03166146bb565b92506101000a8154816001600160701b0302191690836001600160701b031602179055508083600001600e8282829054906101000a90046001600160701b031661358791906146bb565b92506101000a8154816001600160701b0302191690836001600160701b03160217905550816001600160701b03168c6135c0919061467b565b9b506135d56001600160701b0382168c61467b565b8354909b506001600160701b03161580156135ff57508254600160701b90046001600160701b0316155b156136515761361160608e018e614aee565b8581811061362157613621614a7f565b9050602002013586868151811061363a5761363a614a7f565b602090810291909101015261364e85614b4f565b94505b61365a84614b4f565b935050505061333c565b508067ffffffffffffffff81111561367e5761367e614548565b6040519080825280602002602001820160405280156136a7578160200160208202803683370190505b50955060005b818110156136fc578281815181106136c7576136c7614a7f565b60200260200101518782815181106136e1576136e1614a7f565b60209081029190910101526136f581614b4f565b90506136ad565b5083548890859060009061371a9084906001600160801b031661467b565b82546101009290920a6001600160801b0381810219909316918316021790915585548992508691601091613757918591600160801b900416614654565b92506101000a8154816001600160801b0302191690836001600160801b03160217905550866001600160801b03166000146137bb576137bb61379f60408b0160208c01614075565b6035546001600160a01b0316906001600160801b038a166138bb565b6001600160801b038816156137ed576034546137ed906001600160a01b0316896137e860c08d018d61470e565b613c2f565b6137fd60608a0160408b01614075565b6001600160a01b031661381660408b0160208c01614075565b6001600160a01b0316336001600160a01b03167f177b29f06a986a97eb6e31c486d098e81cc89251c0e4bd6bd9ab8f7342e370e48c600001358a8d8d60405161118d9493929190614b68565b6002600154036138b45760405162461bcd60e51b815260206004820152601f60248201527f5265656e7472616e637947756172643a207265656e7472616e742063616c6c0060448201526064016107ca565b6002600155565b604080516001600160a01b038416602482015260448082018490528251808303909101815260649091019091526020810180516001600160e01b031663a9059cbb60e01b17905261390d908490613cc8565b505050565b60018055565b600054610100900460ff1661393f5760405162461bcd60e51b81526004016107ca90614ba2565b613947613d9a565b565b600061395d856001600160a01b0316613dc1565b604051630ee98d8160e31b8152909150339063774c6c089061398790879087908790600401614c16565b600060405180830381600087803b1580156139a157600080fd5b505af11580156139b5573d6000803e3d6000fd5b5050505060006139cd866001600160a01b0316613dc1565b90506139e26001600160701b03861683614641565b8110156109f25760405162461bcd60e51b81526004016107ca906020808252600490820152634533303560e01b604082015260600190565b6000613a2e876001600160a01b0316613dc1565b90506000613a44876001600160a01b0316613dc1565b6040516391f7f27f60e01b815290915033906391f7f27f90613a70908990899089908990600401614c39565b600060405180830381600087803b158015613a8a57600080fd5b505af1158015613a9e573d6000803e3d6000fd5b505050506000613ab6896001600160a01b0316613dc1565b90506000613acc896001600160a01b0316613dc1565b9050613ad88885614641565b821015613b105760405162461bcd60e51b81526004016107ca90602080825260049082015263114ccc0d60e21b604082015260600190565b613b236001600160701b03881684614641565b811015613b5b5760405162461bcd60e51b81526004016107ca906020808252600490820152634533303560e01b604082015260600190565b50505050505050505050565b6000613b7b856001600160a01b0316613dc1565b604051633cf2926560e11b815290915033906379e524ca90613ba590879087908790600401614c62565b600060405180830381600087803b158015613bbf57600080fd5b505af1158015613bd3573d6000803e3d6000fd5b505050506000613beb866001600160a01b0316613dc1565b9050613bf78583614641565b8110156109f25760405162461bcd60e51b81526004016107ca90602080825260049082015263114ccc0d60e21b604082015260600190565b6000613c43856001600160a01b0316613dc1565b60405163a9bdcdd960e01b8152909150339063a9bdcdd990613c6d90879087908790600401614c7c565b600060405180830381600087803b158015613c8757600080fd5b505af1158015613c9b573d6000803e3d6000fd5b505050506000613cb3866001600160a01b0316613dc1565b9050613bf76001600160801b03861683614641565b6000613d1d826040518060400160405280602081526020017f5361666545524332303a206c6f772d6c6576656c2063616c6c206661696c6564815250856001600160a01b0316613e559092919063ffffffff16565b80519091501561390d5780806020019051810190613d3b9190614c9f565b61390d5760405162461bcd60e51b815260206004820152602a60248201527f5361666545524332303a204552433230206f7065726174696f6e20646964206e6044820152691bdd081cdd58d8d9595960b21b60648201526084016107ca565b600054610100900460ff166139125760405162461bcd60e51b81526004016107ca90614ba2565b60408051306024808301919091528251808303909101815260449091018252602080820180516001600160e01b03166370a0823160e01b179052825180840190935260168352752330b4b632b21022a9219918103130b630b731b2a7b360511b908301526000918291613e3f916001600160a01b0386169190613e6c565b905080806020019051810190612bc19190614cc1565b6060613e648484600085613ee4565b949350505050565b6060600080856001600160a01b031685604051613e899190614cfe565b600060405180830381855afa9150503d8060008114613ec4576040519150601f19603f3d011682016040523d82523d6000602084013e613ec9565b606091505b5091509150613eda86838387613fbf565b9695505050505050565b606082471015613f455760405162461bcd60e51b815260206004820152602660248201527f416464726573733a20696e73756666696369656e742062616c616e636520666f6044820152651c8818d85b1b60d21b60648201526084016107ca565b600080866001600160a01b03168587604051613f619190614cfe565b60006040518083038185875af1925050503d8060008114613f9e576040519150601f19603f3d011682016040523d82523d6000602084013e613fa3565b606091505b5091509150613fb487838387613fbf565b979650505050505050565b6060831561402e578251600003614027576001600160a01b0385163b6140275760405162461bcd60e51b815260206004820152601d60248201527f416464726573733a2063616c6c20746f206e6f6e2d636f6e747261637400000060448201526064016107ca565b5081613e64565b613e6483838151156140435781518083602001fd5b8060405162461bcd60e51b81526004016107ca9190614d1a565b6001600160a01b038116811461407257600080fd5b50565b60006020828403121561408757600080fd5b8135612bc18161405d565b6000602082840312156140a457600080fd5b5035919050565b600080604083850312156140be57600080fd5b8235915060208301356140d08161405d565b809150509250929050565b60408101610890828480516001600160801b03908116835260209182015116910152565b803561ffff8116811461086457600080fd5b600080600080600060a0868803121561412957600080fd5b85356141348161405d565b945060208601356141448161405d565b9350614152604087016140ff565b9250614160606087016140ff565b915061416e608087016140ff565b90509295509295909350565b600060e0828403121561418c57600080fd5b50919050565b6000602082840312156141a457600080fd5b813567ffffffffffffffff8111156141bb57600080fd5b613e648482850161417a565b6001600160701b038082511683528060208301511660208401525063ffffffff60408201511660408301525050565b8381526020810183905260a08101613e6460408301846141c7565b600060e0828403121561422357600080fd5b612bc1838361417a565b848152602081018490526040810183905260c0810161424f60608301846141c7565b95945050505050565b80516001600160701b03908116835260208083015182169084015260408083015182169084015260609182015116910152565b82815260a08101612bc16020830184614258565b6000806000606084860312156142b457600080fd5b8335925060208401356142c68161405d565b929592945050506040919091013590565b6060810161089082846141c7565b608081016108908284614258565b60006080828403121561418c57600080fd5b600081518084526020808501945080840160005b8381101561433557815187529582019590820190600101614319565b509495945050505050565b60006001600160801b0380861683528085166020840152506060604083015261424f6060830184614305565b60006020828403121561437e57600080fd5b8151612bc18161405d565b6020808252600490820152634532303160e01b604082015260600190565b6020808252600490820152632299181960e11b604082015260600190565b602080825260049082015263114c8c0d60e21b604082015260600190565b6001600160701b038116811461407257600080fd5b60006020828403121561440a57600080fd5b8135612bc1816143e3565b6020808252600490820152634532303560e01b604082015260600190565b6020808252600490820152632299181b60e11b604082015260600190565b80546001600160801b0381168352608090811c6020840152600182015460408401526002820154606084015260038201546001600160701b0380821692850192909252607090811c821660a0850152600483015480831660c0860152811c821660e085015260058301546001600160781b03811661010086015260781c821661012085015260069092015480821661014085015290911c1661016090910152565b8881526102608101614507602083018a614451565b6001600160701b039788166101a08301529587166101c0820152939095166101e0840152610200830191909152610220820152610240019190915292915050565b634e487b7160e01b600052604160045260246000fd5b60006060828403121561457057600080fd5b6040516060810181811067ffffffffffffffff821117156145a157634e487b7160e01b600052604160045260246000fd5b806040525080915082516145b4816143e3565b815260208301516145c4816143e3565b6020820152604083015163ffffffff811681146145e057600080fd5b6040919091015292915050565b60008060008060c0858703121561460357600080fd5b61460d868661455e565b6060860151608087015160a090970151919890975090945092505050565b634e487b7160e01b600052601160045260246000fd5b808201808211156108905761089061462b565b6001600160801b038281168282160390808211156146745761467461462b565b5092915050565b6001600160801b038181168382160190808211156146745761467461462b565b6001600160781b038181168382160190808211156146745761467461462b565b6001600160701b038281168282160390808211156146745761467461462b565b6001600160701b038181168382160190808211156146745761467461462b565b818103818111156108905761089061462b565b6000808335601e1984360301811261472557600080fd5b83018035915067ffffffffffffffff82111561474057600080fd5b60200191503681900382131561475557600080fd5b9250929050565b8781526020810187905260408101869052610120810161477f60608301876141c7565b8460c08301528360e08301528261010083015298975050505050505050565b80356147a9816143e3565b6001600160701b0390811683526020820135906147c5826143e3565b90811660208401526040820135906147dc826143e3565b90811660408401526060820135906147f3826143e3565b808216606085015250505050565b61020081016148108285614451565b612bc161018083018461479e565b80516001600160801b038116811461086457600080fd5b60006040828403121561484757600080fd5b6040516040810181811067ffffffffffffffff8211171561487857634e487b7160e01b600052604160045260246000fd5b6040526148848361481e565b81526148926020840161481e565b60208201529392505050565b83815260e081016148b2602083018561479e565b82516001600160801b0390811660a084015260208401511660c0830152613e64565b85815261020081016148e96020830187614451565b6001600160701b039485166101a08301529284166101c082015292166101e09092019190915292915050565b600080600060a0848603121561492a57600080fd5b8351925061493b856020860161455e565b9150608084015190509250925092565b60006101008201905087825286602083015285604083015284606083015261497660808301856141c7565b8260e0830152979650505050505050565b60008060008084860360e081121561499e57600080fd5b60808112156149ac57600080fd5b506040516080810181811067ffffffffffffffff821117156149de57634e487b7160e01b600052604160045260246000fd5b60405285516149ec816143e3565b815260208601516149fc816143e3565b60208201526040860151614a0f816143e3565b60408201526060860151614a22816143e3565b6060820152608086015160a087015160c090970151919890975090945092505050565b868152602081018690526101208101614a616040830187614258565b8460c08301528360e083015282610100830152979650505050505050565b634e487b7160e01b600052603260045260246000fd5b6101a08101614aa48285614451565b826101808301529392505050565b600080600060608486031215614ac757600080fd5b614ad08461481e565b9250614ade6020850161481e565b9150604084015190509250925092565b6000808335601e19843603018112614b0557600080fd5b83018035915067ffffffffffffffff821115614b2057600080fd5b6020019150600581901b360382131561475557600080fd5b80820281158282048414176108905761089061462b565b600060018201614b6157614b6161462b565b5060010190565b848152608060208201526000614b816080830186614305565b6001600160801b039485166040840152929093166060909101529392505050565b6020808252602b908201527f496e697469616c697a61626c653a20636f6e7472616374206973206e6f74206960408201526a6e697469616c697a696e6760a81b606082015260800190565b81835281816020850137506000828201602090810191909152601f909101601f19169091010190565b6001600160701b038416815260406020820152600061424f604083018486614bed565b8481526001600160701b0384166020820152606060408201526000613eda606083018486614bed565b83815260406020820152600061424f604083018486614bed565b6001600160801b038416815260406020820152600061424f604083018486614bed565b600060208284031215614cb157600080fd5b81518015158114612bc157600080fd5b600060208284031215614cd357600080fd5b5051919050565b60005b83811015614cf5578181015183820152602001614cdd565b50506000910152565b60008251614d10818460208701614cda565b9190910192915050565b6020815260008251806020840152614d39816040850160208701614cda565b601f01601f1916919091016040019291505056fea2646970667358221220fc7f87badd135e4d9c39da31f917e7386092df49e02ecf06f287e5e8de44cf2364736f6c63430008140033",
  "deployedBytecode": "0x608060405234801561001057600080fd5b50600436106101a95760003560e01c8063a7a7b224116100f9578063bbc538fb11610097578063c88a1d3411610071578063c88a1d34146106b9578063d8dfeb45146106c2578063e97b7cc0146106d5578063eff98843146106f757600080fd5b8063bbc538fb146105ea578063c0eb96e814610676578063c45a0155146106a657600080fd5b8063b0e21e8a116100d3578063b0e21e8a146103ee578063b5e60c3c146103f7578063b77ee8391461041a578063baadc6fe146104c757600080fd5b8063a7a7b22414610373578063aae6fcb414610394578063b064fb3f146103b457600080fd5b806357a3542e11610166578063704ce43e11610140578063704ce43e1461032157806381e6f6d11461032a57806393910a681461033d578063a440fef91461036057600080fd5b806357a3542e146102b257806357cb2640146102d457806360553a09146102dd57600080fd5b806306af49eb146101ae57806309c8b1ab146101d45780630f79fca5146101f75780631eb9cd431461020a578063295b0f241461027257806338d52e0f14610287575b600080fd5b6101c16101bc366004614075565b610700565b6040519081526020015b60405180910390f35b6101c16101e2366004614092565b6000908152603b602052604090206001015490565b6101c16102053660046140ab565b610869565b610265610218366004614092565b6040805180820190915260008082526020820152506000908152603b60209081526040918290208251808401909352546001600160801b038082168452600160801b909104169082015290565b6040516101cb91906140db565b610285610280366004614111565b610896565b005b60345461029a906001600160a01b031681565b6040516001600160a01b0390911681526020016101cb565b6102c56102c0366004614192565b6109fa565b6040516101cb939291906141f6565b6101c160395481565b6103096102eb366004614092565b6000908152603b60205260409020600501546001600160781b031690565b6040516001600160781b0390911681526020016101cb565b6101c160365481565b610265610338366004614211565b6111aa565b61035061034b366004614192565b611948565b6040516101cb949392919061422d565b6101c161036e366004614075565b6120d8565b610386610381366004614192565b612226565b6040516101cb92919061428b565b6103a76103a236600461429f565b612b25565b6040516101cb91906142d7565b6101c16103c23660046140ab565b6000828152603b602090815260408083206001600160a01b038516845260090190915290205492915050565b6101c160375481565b6101c1610405366004614092565b6000908152603b602052604090206002015490565b6104ba6104283660046140ab565b604080516080810182526000808252602082018190529181018290526060810191909152506000828152603b602090815260408083206001600160a01b0385168452600801825291829020825160808101845281546001600160701b038082168352600160701b9182900481169483019490945260019092015480841694820194909452920416606082015292915050565b6040516101cb91906142e5565b6105c06104d5366004614092565b6000908152603b602090815260409182902082516101408101845281546001600160801b038082166101008401908152600160801b90920416610120830152815260018201548184015260028201548185015283516080808201865260038401546001600160701b038082168452600160701b9182900481169684019690965260048501548087169784019790975295869004851660608084019190915283019190915260058301546001600160781b03811691830191909152600160781b9004831660a0820181905260069092015480841660c0830181905294900490921660e090920182905292565b604080516001600160701b03948516815292841660208401529216918101919091526060016101cb565b6104ba6105f8366004614092565b604080516080810182526000808252602082018190529181018290526060810191909152506000908152603b6020908152604091829020825160808101845260038201546001600160701b038082168352600160701b9182900481169483019490945260049092015480841694820194909452920416606082015290565b6106896106843660046142f3565b612bc8565b604080519283526001600160801b039091166020830152016101cb565b60335461029a906001600160a01b031681565b6101c1603a5481565b60355461029a906001600160a01b031681565b6106e86106e3366004614192565b613149565b6040516101cb93929190614340565b6101c160385481565b600061070a613862565b603360009054906101000a90046001600160a01b03166001600160a01b03166384b171596040518163ffffffff1660e01b8152600401602060405180830381865afa15801561075d573d6000803e3d6000fd5b505050506040513d601f19601f82011682018060405250810190610781919061436c565b6001600160a01b0316336001600160a01b0316146107d35760405162461bcd60e51b81526004016107ca9060208082526004908201526308a6462760e31b604082015260600190565b60405180910390fd5b6001600160a01b0382166107f95760405162461bcd60e51b81526004016107ca90614389565b50603a8054600090915560345461081a906001600160a01b031683836138bb565b6040518181526001600160a01b0383169033907fa667cae3d0fe381afe349907aa6ae5af74ea961807124b60a78568bc2ad825be906020015b60405180910390a361086460018055565b919050565b6000828152603b602090815260408083206001600160a01b03851684526007019091529020545b92915050565b600054610100900460ff16158080156108b65750600054600160ff909116105b806108d05750303b1580156108d0575060005460ff166001145b6109335760405162461bcd60e51b815260206004820152602e60248201527f496e697469616c697a61626c653a20636f6e747261637420697320616c72656160448201526d191e481a5b9a5d1a585b1a5e995960921b60648201526084016107ca565b6000805460ff191660011790558015610956576000805461ff0019166101001790555b61095e613918565b60338054336001600160a01b0319918216179091556034805482166001600160a01b03898116919091179091556035805490921690871617905561ffff848116603655838116603755821660385580156109f2576000805461ff0019169055604051600181527f7f26b83ff96e1f2b6a682f133852f6798a09c465da95921460cefb38474024989060200160405180910390a15b505050505050565b604080516060810182526000808252602082018190529181018290528190610a20613862565b83354210610a405760405162461bcd60e51b81526004016107ca906143a7565b6000610a526040860160208701614075565b6001600160a01b031603610a785760405162461bcd60e51b81526004016107ca90614389565b6000610a8a6060860160408701614075565b6001600160a01b031603610ab05760405162461bcd60e51b81526004016107ca90614389565b30610ac16040860160208701614075565b6001600160a01b031603610ae75760405162461bcd60e51b81526004016107ca906143c5565b30610af86060860160408701614075565b6001600160a01b031603610b1e5760405162461bcd60e51b81526004016107ca906143c5565b610b2e60808501606086016143f8565b6001600160701b0316600003610b565760405162461bcd60e51b81526004016107ca90614415565b83356000908152603b6020908152604080832081516101408101835281546001600160801b038082166101008401908152600160801b909204166101208301528152600182015481850152600282015481840190815283516080808201865260038501546001600160701b038082168452600160701b9182900481169884019890985260048601548089169784019790975295869004871660608381019190915284019190915260058401546001600160781b03811691840191909152600160781b9004851660a0830152600683015480861660c08401529390930490931660e08401529051909203610c5b5760405162461bcd60e51b81526004016107ca90614433565b6000808073__$26609376d2720b0932c21f189a770d8be8$__6353c52ef18a3587610c8c60808e0160608f016143f8565b8d6080016020810190610c9f91906143f8565b8e60a0016020810190610cb291906143f8565b6036546037546038546040518963ffffffff1660e01b8152600401610cde9897969594939291906144f2565b60c060405180830381865af4158015610cfb573d6000803e3d6000fd5b505050506040513d601f19601f82011682018060405250810190610d1f91906145ed565b602088018051949a5092965090945092508491610d3d908390614641565b90525060398054839190600090610d55908490614641565b9250508190555080603a6000828254610d6e9190614641565b90915550610e14905086600987016000610d8e60608e0160408f01614075565b6001600160a01b0316815260208101919091526040016000209081546001810183556000928352602092839020825190820180549484015160409094015163ffffffff16600160e01b026001600160e01b036001600160701b03958616600160701b026001600160e01b0319909716959093169490941794909417169190911790915590565b9650610e2660808a0160608b016143f8565b6001600160701b03168460000151600001818151610e449190614654565b6001600160801b0316905250602080870151855190910180516001600160701b0390921691610e7490839061467b565b6001600160801b031690525085516080850180516001600160701b0390921691610e9f90839061469b565b6001600160781b0316905250610ebb60808a0160608b016143f8565b8460a001818151610ecc91906146bb565b6001600160701b0316905250610ee860a08a0160808b016143f8565b8460c001818151610ef991906146db565b6001600160701b0316905250610f1560c08a0160a08b016143f8565b8460e001818151610f2691906146db565b6001600160701b03908116909152855180516020918201516001600160801b03918216600160801b929091169190910217885580870151600189015560408088015160028a0155606080890151805160038c018054958301519187166001600160e01b031996871617600160701b92881683021790559281015160048c018054928401519187169286169290921790861684021790556080808a015160058c01805460a08d01516001600160781b039093166001600160e81b031990911617600160781b9288169290920291909117905560c08a015160068c01805460e08d015192881696169590951795169092029390931790915561102b92508b01908b016143f8565b6001600160701b0316975061104083896146fb565b975061104c82896146fb565b975061105881896146fb565b975061108061106d60408b0160208c01614075565b6034546001600160a01b0316908a6138bb565b60355460208701516110a8916001600160a01b0316906110a360c08d018d61470e565b613949565b6005850154600686015460408051600160781b9093046001600160701b0390811684528083166020850152600160701b909204909116908201528935907f1147bcb0e71ebff15e66fd21a23234fe9acc1891f46595062d71501b0cacbdaa9060600160405180910390a261112260608a0160408b01614075565b6001600160a01b031661113b60408b0160208c01614075565b6001600160a01b0316336001600160a01b03167f82a3d6c8af852cdba73769f6c2f1157ecb844b51d9051dfc6178716ed6386b248c600001358c8c8c8a8a8a60405161118d979695949392919061475c565b60405180910390a450505050506111a360018055565b9193909250565b60408051808201909152600080825260208201526111c6613862565b81354210156112005760405162461bcd60e51b81526004016107ca906020808252600490820152634532303360e01b604082015260600190565b60006112126040840160208501614075565b6001600160a01b0316036112385760405162461bcd60e51b81526004016107ca90614389565b600061124a6060840160408501614075565b6001600160a01b0316036112705760405162461bcd60e51b81526004016107ca90614389565b306112816040840160208501614075565b6001600160a01b0316036112a75760405162461bcd60e51b81526004016107ca906143c5565b306112b86060840160408501614075565b6001600160a01b0316036112de5760405162461bcd60e51b81526004016107ca906143c5565b6112ee60808301606084016143f8565b6001600160701b031615158061131b575061130f60a08301608084016143f8565b6001600160701b031615155b8061133d575061133160c0830160a084016143f8565b6001600160701b031615155b8061135f575061135360e0830160c084016143f8565b6001600160701b031615155b61137b5760405162461bcd60e51b81526004016107ca90614415565b81356000908152603b602090815260409182902082516101408101845281546001600160801b038082166101008401908152600160801b90920416610120830152815260018201548184015260028201548185015283516080808201865260038401546001600160701b038082168452600160701b91829004811696840196909652600480860154808816858a015282900487166060858101919091528086019490945260058601546001600160781b03811693860193909352600160781b909204861660a0850152600685015480871660c08601520490941660e083015293516317db9b6b60e01b81529193909273__$26609376d2720b0932c21f189a770d8be8$__926317db9b6b92611496928792918a019101614801565b6040805180830381865af41580156114b2573d6000803e3d6000fd5b505050506040513d601f19601f820116820180604052508101906114d69190614835565b92506114e860808501606086016143f8565b606082015180516114fa9083906146bb565b6001600160701b031690525061151660a08501608086016143f8565b816060015160200181815161152b91906146bb565b6001600160701b031690525061154760c0850160a086016143f8565b816060015160400181815161155c91906146bb565b6001600160701b031690525061157860e0850160c086016143f8565b816060015160600181815161158d91906146bb565b6001600160701b0390811690915233600090815260088501602090815260409182902082516080808201855282548087168352600160701b908190048716948301949094526001909201548086169482019490945291909204909216606080840191909152919250611604919087019087016143f8565b815182906116139083906146bb565b6001600160701b031690525061162f60a08601608087016143f8565b8160200181815161164091906146bb565b6001600160701b031690525061165c60c0860160a087016143f8565b8160400181815161166d91906146bb565b6001600160701b031690525061168960e0860160c087016143f8565b8160600181815161169a91906146bb565b6001600160701b0390811690915233600090815260088601602090815260409182902085518154928701519085166001600160e01b031993841617600160701b91861682021782559286015160019091018054606088015192861693169290921793169091029190911790555083516001600160801b03161561176557835182518051611728908390614654565b6001600160801b03169052506117656117476040870160208801614075565b85516034546001600160a01b031691906001600160801b03166138bb565b60208401516001600160801b0316156117d257836020015182600001516020018181516117929190614654565b6001600160801b03169052506117d26117b16060870160408801614075565b60208601516035546001600160a01b031691906001600160801b03166138bb565b815180516020918201516001600160801b03918216600160801b929091169190910217845580830151600185015560408084015160028601556060808501518051600388018054958301516001600160701b039283166001600160e01b031997881617600160701b9184168202179091558285015160048a0180549486015191841694881694909417908316820217909255608087015160058901805460a08a01516001600160781b039093166001600160e81b031990911617600160781b9284169290920291909117905560c087015160068901805460e08a01519284169716969096179116909102179092556118ce918701908701614075565b6001600160a01b03166118e76040870160208801614075565b6001600160a01b0316336001600160a01b03167fd3240d81c413bb3991c962b2f29da128e2d22cd3f040b2bfe14f0d2a3d0199a2886000013589606001896040516119349392919061489e565b60405180910390a450505061086460018055565b6040805160608101825260008082526020820181905291810182905281908190611970613862565b843542106119905760405162461bcd60e51b81526004016107ca906143a7565b64010000000042863503106119d05760405162461bcd60e51b81526004016107ca9060208082526004908201526308a6460760e31b604082015260600190565b60006119e26040870160208801614075565b6001600160a01b031603611a085760405162461bcd60e51b81526004016107ca90614389565b6000611a1a6060870160408801614075565b6001600160a01b031603611a405760405162461bcd60e51b81526004016107ca90614389565b30611a516040870160208801614075565b6001600160a01b031603611a775760405162461bcd60e51b81526004016107ca906143c5565b30611a886060870160408801614075565b6001600160a01b031603611aae5760405162461bcd60e51b81526004016107ca906143c5565b611abe60808601606087016143f8565b6001600160701b0316600003611ae65760405162461bcd60e51b81526004016107ca90614415565b611af660a08601608087016143f8565b6001600160701b0316600003611b1e5760405162461bcd60e51b81526004016107ca90614415565b611b2e60c0860160a087016143f8565b6001600160701b0316600003611b565760405162461bcd60e51b81526004016107ca90614415565b84356000818152603b6020908152604080832081516101408101835281546001600160801b038082166101008401908152600160801b90920416610120830152815260018201548185015260028201548184015282516080808201855260038401546001600160701b038082168452600160701b918290048116978401979097526004850154808816968401969096529485900486166060838101919091528084019290925260058401546001600160781b03811682850152600160781b9004861660a0840152600684015480871660c08501529490940490941660e0820152909490939273__$26609376d2720b0932c21f189a770d8be8$__926397b3791492918791611c6991908e01908e016143f8565b611c7960a08e0160808f016143f8565b8d60a0016020810190611c8c91906143f8565b6040518663ffffffff1660e01b8152600401611cac9594939291906148d4565b60a060405180830381865af4158015611cc9573d6000803e3d6000fd5b505050506040513d601f19601f82011682018060405250810190611ced9190614915565b919750945090506000869003611d2e5760405162461bcd60e51b81526004016107ca906020808252600490820152632299189960e11b604082015260600190565b8582604001818151611d409190614641565b90525085600784016000611d5a60408c0160208d01614075565b6001600160a01b03166001600160a01b031681526020019081526020016000206000828254611d899190614641565b925050819055508082602001818151611da29190614641565b905250611db56080890160608a016143f8565b6001600160701b03168260000151600001818151611dd3919061467b565b6001600160801b0316905250602080850151835190910180516001600160701b0390921691611e0390839061467b565b6001600160801b0316905250611e1f6080890160608a016143f8565b8260a001818151611e3091906146db565b6001600160701b0316905250611e4c60a0890160808a016143f8565b8260c001818151611e5d91906146db565b6001600160701b0316905250611e7960c0890160a08a016143f8565b8260e001818151611e8a91906146db565b6001600160701b03908116909152835180516020918201516001600160801b03918216600160801b92909116919091021786558085015160018701556040808601516002880155606080870151805160038a018054958301519187166001600160e01b031996871617600160701b92881683021790559281015160048a0180549284015191871692861692909217908616840217905560808088015160058a01805460a08b01516001600160781b039093166001600160e81b031990911617600160781b9288169290920291909117905560c088015160068a01805460e08b0151928816961695909517951690920293909317909155611f8f92508a01908a016143f8565b6001600160701b03169650611fa48188614641565b6034546035546020870151929950611fda926001600160a01b0392831692909116908a90611fd560c08e018e61470e565b613a1a565b6005830154600684015460408051600160781b9093046001600160701b0390811684528083166020850152600160701b909204909116908201528835907f1147bcb0e71ebff15e66fd21a23234fe9acc1891f46595062d71501b0cacbdaa9060600160405180910390a26120546060890160408a01614075565b6001600160a01b031661206d60408a0160208b01614075565b6001600160a01b0316336001600160a01b03167f88018ff4a4eb65189878e69e43401baaf50cfe5cdc5d0412a32f646d193b88f68b600001358b8b8b8b896040516120bd9695949392919061494b565b60405180910390a45050506120d160018055565b9193509193565b60006120e2613862565b603360009054906101000a90046001600160a01b03166001600160a01b031663850a15016040518163ffffffff1660e01b8152600401602060405180830381865afa158015612135573d6000803e3d6000fd5b505050506040513d601f19601f82011682018060405250810190612159919061436c565b6001600160a01b0316336001600160a01b0316146121a25760405162461bcd60e51b81526004016107ca906020808252600490820152632299189b60e11b604082015260600190565b6001600160a01b0382166121c85760405162461bcd60e51b81526004016107ca90614389565b506039805460009091556034546121e9906001600160a01b031683836138bb565b6040518181526001600160a01b0383169033907fbea3eebc02d46c3713e32d2ca6ab0ee1698c47e76cd1bd7707794dcea8bf56f190602001610853565b6040805160808101825260008082526020820181905291810182905260608101829052612251613862565b823542106122715760405162461bcd60e51b81526004016107ca906143a7565b60006122836040850160208601614075565b6001600160a01b0316036122a95760405162461bcd60e51b81526004016107ca90614389565b60006122bb6060850160408601614075565b6001600160a01b0316036122e15760405162461bcd60e51b81526004016107ca90614389565b306122f26040850160208601614075565b6001600160a01b0316036123185760405162461bcd60e51b81526004016107ca906143c5565b306123296060850160408601614075565b6001600160a01b03160361234f5760405162461bcd60e51b81526004016107ca906143c5565b61235f60808401606085016143f8565b6001600160701b03166000036123875760405162461bcd60e51b81526004016107ca90614415565b82356000908152603b6020908152604080832081516101408101835281546001600160801b038082166101008401908152600160801b909204166101208301528152600182015481850152600282015481840190815283516080808201865260038501546001600160701b038082168452600160701b9182900481169884019890985260048601548089169784019790975295869004871660608381019190915284019190915260058401546001600160781b03811691840191909152600160781b9004851660a0830152600683015480861660c08401529390930490931660e0840152905190920361248c5760405162461bcd60e51b81526004016107ca90614433565b6000808073__$26609376d2720b0932c21f189a770d8be8$__633be5a4d78935876124bd60808d0160608e016143f8565b6124cd60a08e0160808f016143f8565b8d60a00160208101906124e091906143f8565b6036546037546038546040518963ffffffff1660e01b815260040161250c9897969594939291906144f2565b60e060405180830381865af4158015612529573d6000803e3d6000fd5b505050506040513d601f19601f8201168201806040525081019061254d9190614987565b602088018051949a509296509094509250849161256b908390614641565b90525060398054839190600090612583908490614641565b9250508190555080603a600082825461259c9190614641565b90915550508551606085015180516125b59083906146db565b6001600160701b0316905250602080870151606086015190910180516125dc9083906146db565b6001600160701b0316905250604080870151606086015190910180516126039083906146db565b6001600160701b03169052506060808701518582015190910180516126299083906146db565b6001600160701b0316905250855160088601600061264d60408c0160208d01614075565b6001600160a01b031681526020810191909152604001600090812080549091906126819084906001600160701b03166146db565b92506101000a8154816001600160701b0302191690836001600160701b0316021790555085602001518560080160008a60200160208101906126c39190614075565b6001600160a01b0316815260208101919091526040016000208054600e906126fc908490600160701b90046001600160701b03166146db565b92506101000a8154816001600160701b0302191690836001600160701b0316021790555085604001518560080160008a604001602081019061273e9190614075565b6001600160a01b031681526020810191909152604001600090812060010180549091906127759084906001600160701b03166146db565b92506101000a8154816001600160701b0302191690836001600160701b0316021790555085606001518560080160008a60400160208101906127b79190614075565b6001600160a01b0316815260208101919091526040016000206001018054600e906127f3908490600160701b90046001600160701b03166146db565b92506101000a8154816001600160701b0302191690836001600160701b0316021790555087606001602081019061282a91906143f8565b6001600160701b03168460000151600001818151612848919061467b565b6001600160801b03169052506128646080890160608a016143f8565b8460a00181815161287591906146db565b6001600160701b031690525061289160a0890160808a016143f8565b8460c0018181516128a291906146bb565b6001600160701b03169052506128be60c0890160a08a016143f8565b8460e0018181516128cf91906146bb565b6001600160701b03908116909152855180516020918201516001600160801b03918216600160801b929091169190910217885580870151600189015560408088015160028a0155606080890151805160038c018054958301519187166001600160e01b031996871617600160701b92881683021790559281015160048c018054928401519187169286169290921790861684021790556080808a015160058c01805460a08d01516001600160781b039093166001600160e81b031990911617600160781b9288169290920291909117905560c08a015160068c01805460e08d01519288169616959095179516909202939093179091556129d492508a01908a016143f8565b6001600160701b031696506129e98388614641565b96506129f58288614641565b9650612a018188614641565b603454909750612a27906001600160a01b031688612a2260c08c018c61470e565b613b67565b6005850154600686015460408051600160781b9093046001600160701b0390811684528083166020850152600160701b909204909116908201528835907f1147bcb0e71ebff15e66fd21a23234fe9acc1891f46595062d71501b0cacbdaa9060600160405180910390a2612aa16060890160408a01614075565b6001600160a01b0316612aba60408a0160208b01614075565b6001600160a01b0316336001600160a01b03167f5dba5a105c9917cd30912f0b306a64f44963601650a1f04f93bb2891a96ba0258b600001358b8b898989604051612b0a96959493929190614a45565b60405180910390a45050505050612b2060018055565b915091565b6040805160608101825260008082526020808301829052828401829052868252603b81528382206001600160a01b0387168352600901905291909120805483908110612b7357612b73614a7f565b60009182526020918290206040805160608101825291909201546001600160701b038082168352600160701b8204169382019390935263ffffffff600160e01b909304929092169082015290505b9392505050565b600080612bd3613862565b8235421015612c0d5760405162461bcd60e51b81526004016107ca906020808252600490820152634532303360e01b604082015260600190565b6000612c1f6040850160208601614075565b6001600160a01b031603612c455760405162461bcd60e51b81526004016107ca90614389565b6000612c576060850160408601614075565b6001600160a01b031603612c7d5760405162461bcd60e51b81526004016107ca90614389565b30612c8e6040850160208601614075565b6001600160a01b031603612cb45760405162461bcd60e51b81526004016107ca906143c5565b30612cc56060850160408601614075565b6001600160a01b031603612ceb5760405162461bcd60e51b81526004016107ca906143c5565b8260600135600003612d0f5760405162461bcd60e51b81526004016107ca90614415565b82356000908152603b6020908152604080832081516101408101835281546001600160801b038082166101008401908152600160801b909204166101208301528152600182015481850152600282015481840190815283516080808201865260038501546001600160701b038082168452600160701b9182900481169884019890985260048601548089169784019790975295869004871660608381019190915284019190915260058401546001600160781b03811691840191909152600160781b9004851660a0830152600683015480861660c08401529390930490931660e08401529051909203612e145760405162461bcd60e51b81526004016107ca90614433565b60405163029b65e160e41b8152600090819073__$26609376d2720b0932c21f189a770d8be8$__906329b65e1090612e5690879060608c013590600401614a95565b606060405180830381865af4158015612e73573d6000803e3d6000fd5b505050506040513d601f19601f82011682018060405250810190612e979190614ab2565b604086018051929850929450925060608901359190612eb79083906146fb565b9052503360009081526007850160205260408120805460608a01359290612edf9084906146fb565b90915550506001600160801b0382169550612efa8187614641565b95508515612f5d5782518051839190612f14908390614654565b6001600160801b0316905250602083018051829190612f349083906146fb565b905250612f5d612f4a6040890160208a01614075565b6034546001600160a01b031690886138bb565b6001600160801b03851615612fbd57848360000151602001818151612f829190614654565b6001600160801b0316905250612fbd612fa16060890160408a01614075565b6035546001600160a01b0316906001600160801b0388166138bb565b825180516020918201516001600160801b03918216600160801b929091169190910217855580840151600186015560408085015160028701556060808601518051600389018054958301516001600160701b039283166001600160e01b031997881617600160701b9184168202179091558285015160048b0180549486015191841694881694909417908316820217909255608088015160058a01805460a08b01516001600160781b039093166001600160e81b031990911617600160781b9284169290920291909117905560c088015160068a01805460e08b01519284169716969096179116909102179092556130b9918901908901614075565b6001600160a01b03166130d26040890160208a01614075565b604080518a3581526060808c013560208301528183018b90526001600160801b038a16908201526080810185905290516001600160a01b03929092169133917fe29621344001b5bbfbfa920bf7ad2b10cb37ac862596010c0c9e813e65ed344f919081900360a00190a450505050612b2060018055565b6000806060613156613862565b833542106131765760405162461bcd60e51b81526004016107ca906143a7565b60006131886060860160408701614075565b6001600160a01b0316036131ae5760405162461bcd60e51b81526004016107ca90614389565b60006131c06040860160208701614075565b6001600160a01b0316036131e65760405162461bcd60e51b81526004016107ca90614389565b306131f76040860160208701614075565b6001600160a01b03160361321d5760405162461bcd60e51b81526004016107ca906143c5565b600061322c6060860186614aee565b915061323d90506080860186614aee565b9050811461325d5760405162461bcd60e51b81526004016107ca90614415565b61326a60a0860186614aee565b9050811461328a5760405162461bcd60e51b81526004016107ca90614415565b84356000908152603b60205260408082209190600983019082906132b49060608b01908b01614075565b6001600160a01b03168152602081019190915260400160002080549091508311156132f15760405162461bcd60e51b81526004016107ca90614415565b60008367ffffffffffffffff81111561330c5761330c614548565b604051908082528060200260200182016040528015613335578160200160208202803683370190505b5090506000805b858110156136645760008461335460608d018d614aee565b8481811061336457613364614a7f565b905060200201358154811061337b5761337b614a7f565b90600052602060002001905061338e4390565b815463ffffffff918216600160e01b909104909116036133d95760405162461bcd60e51b81526004016107ca906020808252600490820152634532303760e01b604082015260600190565b60006133e860808d018d614aee565b848181106133f8576133f8614a7f565b905060200201602081019061340d91906143f8565b9050600061341e60a08e018e614aee565b8581811061342e5761342e614a7f565b905060200201602081019061344391906143f8565b9050336001600160a01b03168d60400160208101906134629190614075565b6001600160a01b0316146134b0576001600160701b038116156134b05760405162461bcd60e51b81526004016107ca906020808252600490820152634532313360e01b604082015260600190565b82546134c9906001600160701b03908116908316614b38565b83546134e9906001600160701b03600160701b9091048116908516614b38565b10156135205760405162461bcd60e51b81526004016107ca906020808252600490820152634533303360e01b604082015260600190565b82548290849060009061353d9084906001600160701b03166146bb565b92506101000a8154816001600160701b0302191690836001600160701b031602179055508083600001600e8282829054906101000a90046001600160701b031661358791906146bb565b92506101000a8154816001600160701b0302191690836001600160701b03160217905550816001600160701b03168c6135c0919061467b565b9b506135d56001600160701b0382168c61467b565b8354909b506001600160701b03161580156135ff57508254600160701b90046001600160701b0316155b156136515761361160608e018e614aee565b8581811061362157613621614a7f565b9050602002013586868151811061363a5761363a614a7f565b602090810291909101015261364e85614b4f565b94505b61365a84614b4f565b935050505061333c565b508067ffffffffffffffff81111561367e5761367e614548565b6040519080825280602002602001820160405280156136a7578160200160208202803683370190505b50955060005b818110156136fc578281815181106136c7576136c7614a7f565b60200260200101518782815181106136e1576136e1614a7f565b60209081029190910101526136f581614b4f565b90506136ad565b5083548890859060009061371a9084906001600160801b031661467b565b82546101009290920a6001600160801b0381810219909316918316021790915585548992508691601091613757918591600160801b900416614654565b92506101000a8154816001600160801b0302191690836001600160801b03160217905550866001600160801b03166000146137bb576137bb61379f60408b0160208c01614075565b6035546001600160a01b0316906001600160801b038a166138bb565b6001600160801b038816156137ed576034546137ed906001600160a01b0316896137e860c08d018d61470e565b613c2f565b6137fd60608a0160408b01614075565b6001600160a01b031661381660408b0160208c01614075565b6001600160a01b0316336001600160a01b03167f177b29f06a986a97eb6e31c486d098e81cc89251c0e4bd6bd9ab8f7342e370e48c600001358a8d8d60405161118d9493929190614b68565b6002600154036138b45760405162461bcd60e51b815260206004820152601f60248201527f5265656e7472616e637947756172643a207265656e7472616e742063616c6c0060448201526064016107ca565b6002600155565b604080516001600160a01b038416602482015260448082018490528251808303909101815260649091019091526020810180516001600160e01b031663a9059cbb60e01b17905261390d908490613cc8565b505050565b60018055565b600054610100900460ff1661393f5760405162461bcd60e51b81526004016107ca90614ba2565b613947613d9a565b565b600061395d856001600160a01b0316613dc1565b604051630ee98d8160e31b8152909150339063774c6c089061398790879087908790600401614c16565b600060405180830381600087803b1580156139a157600080fd5b505af11580156139b5573d6000803e3d6000fd5b5050505060006139cd866001600160a01b0316613dc1565b90506139e26001600160701b03861683614641565b8110156109f25760405162461bcd60e51b81526004016107ca906020808252600490820152634533303560e01b604082015260600190565b6000613a2e876001600160a01b0316613dc1565b90506000613a44876001600160a01b0316613dc1565b6040516391f7f27f60e01b815290915033906391f7f27f90613a70908990899089908990600401614c39565b600060405180830381600087803b158015613a8a57600080fd5b505af1158015613a9e573d6000803e3d6000fd5b505050506000613ab6896001600160a01b0316613dc1565b90506000613acc896001600160a01b0316613dc1565b9050613ad88885614641565b821015613b105760405162461bcd60e51b81526004016107ca90602080825260049082015263114ccc0d60e21b604082015260600190565b613b236001600160701b03881684614641565b811015613b5b5760405162461bcd60e51b81526004016107ca906020808252600490820152634533303560e01b604082015260600190565b50505050505050505050565b6000613b7b856001600160a01b0316613dc1565b604051633cf2926560e11b815290915033906379e524ca90613ba590879087908790600401614c62565b600060405180830381600087803b158015613bbf57600080fd5b505af1158015613bd3573d6000803e3d6000fd5b505050506000613beb866001600160a01b0316613dc1565b9050613bf78583614641565b8110156109f25760405162461bcd60e51b81526004016107ca90602080825260049082015263114ccc0d60e21b604082015260600190565b6000613c43856001600160a01b0316613dc1565b60405163a9bdcdd960e01b8152909150339063a9bdcdd990613c6d90879087908790600401614c7c565b600060405180830381600087803b158015613c8757600080fd5b505af1158015613c9b573d6000803e3d6000fd5b505050506000613cb3866001600160a01b0316613dc1565b9050613bf76001600160801b03861683614641565b6000613d1d826040518060400160405280602081526020017f5361666545524332303a206c6f772d6c6576656c2063616c6c206661696c6564815250856001600160a01b0316613e559092919063ffffffff16565b80519091501561390d5780806020019051810190613d3b9190614c9f565b61390d5760405162461bcd60e51b815260206004820152602a60248201527f5361666545524332303a204552433230206f7065726174696f6e20646964206e6044820152691bdd081cdd58d8d9595960b21b60648201526084016107ca565b600054610100900460ff166139125760405162461bcd60e51b81526004016107ca90614ba2565b60408051306024808301919091528251808303909101815260449091018252602080820180516001600160e01b03166370a0823160e01b179052825180840190935260168352752330b4b632b21022a9219918103130b630b731b2a7b360511b908301526000918291613e3f916001600160a01b0386169190613e6c565b905080806020019051810190612bc19190614cc1565b6060613e648484600085613ee4565b949350505050565b6060600080856001600160a01b031685604051613e899190614cfe565b600060405180830381855afa9150503d8060008114613ec4576040519150601f19603f3d011682016040523d82523d6000602084013e613ec9565b606091505b5091509150613eda86838387613fbf565b9695505050505050565b606082471015613f455760405162461bcd60e51b815260206004820152602660248201527f416464726573733a20696e73756666696369656e742062616c616e636520666f6044820152651c8818d85b1b60d21b60648201526084016107ca565b600080866001600160a01b03168587604051613f619190614cfe565b60006040518083038185875af1925050503d8060008114613f9e576040519150601f19603f3d011682016040523d82523d6000602084013e613fa3565b606091505b5091509150613fb487838387613fbf565b979650505050505050565b6060831561402e578251600003614027576001600160a01b0385163b6140275760405162461bcd60e51b815260206004820152601d60248201527f416464726573733a2063616c6c20746f206e6f6e2d636f6e747261637400000060448201526064016107ca565b5081613e64565b613e6483838151156140435781518083602001fd5b8060405162461bcd60e51b81526004016107ca9190614d1a565b6001600160a01b038116811461407257600080fd5b50565b60006020828403121561408757600080fd5b8135612bc18161405d565b6000602082840312156140a457600080fd5b5035919050565b600080604083850312156140be57600080fd5b8235915060208301356140d08161405d565b809150509250929050565b60408101610890828480516001600160801b03908116835260209182015116910152565b803561ffff8116811461086457600080fd5b600080600080600060a0868803121561412957600080fd5b85356141348161405d565b945060208601356141448161405d565b9350614152604087016140ff565b9250614160606087016140ff565b915061416e608087016140ff565b90509295509295909350565b600060e0828403121561418c57600080fd5b50919050565b6000602082840312156141a457600080fd5b813567ffffffffffffffff8111156141bb57600080fd5b613e648482850161417a565b6001600160701b038082511683528060208301511660208401525063ffffffff60408201511660408301525050565b8381526020810183905260a08101613e6460408301846141c7565b600060e0828403121561422357600080fd5b612bc1838361417a565b848152602081018490526040810183905260c0810161424f60608301846141c7565b95945050505050565b80516001600160701b03908116835260208083015182169084015260408083015182169084015260609182015116910152565b82815260a08101612bc16020830184614258565b6000806000606084860312156142b457600080fd5b8335925060208401356142c68161405d565b929592945050506040919091013590565b6060810161089082846141c7565b608081016108908284614258565b60006080828403121561418c57600080fd5b600081518084526020808501945080840160005b8381101561433557815187529582019590820190600101614319565b509495945050505050565b60006001600160801b0380861683528085166020840152506060604083015261424f6060830184614305565b60006020828403121561437e57600080fd5b8151612bc18161405d565b6020808252600490820152634532303160e01b604082015260600190565b6020808252600490820152632299181960e11b604082015260600190565b602080825260049082015263114c8c0d60e21b604082015260600190565b6001600160701b038116811461407257600080fd5b60006020828403121561440a57600080fd5b8135612bc1816143e3565b6020808252600490820152634532303560e01b604082015260600190565b6020808252600490820152632299181b60e11b604082015260600190565b80546001600160801b0381168352608090811c6020840152600182015460408401526002820154606084015260038201546001600160701b0380821692850192909252607090811c821660a0850152600483015480831660c0860152811c821660e085015260058301546001600160781b03811661010086015260781c821661012085015260069092015480821661014085015290911c1661016090910152565b8881526102608101614507602083018a614451565b6001600160701b039788166101a08301529587166101c0820152939095166101e0840152610200830191909152610220820152610240019190915292915050565b634e487b7160e01b600052604160045260246000fd5b60006060828403121561457057600080fd5b6040516060810181811067ffffffffffffffff821117156145a157634e487b7160e01b600052604160045260246000fd5b806040525080915082516145b4816143e3565b815260208301516145c4816143e3565b6020820152604083015163ffffffff811681146145e057600080fd5b6040919091015292915050565b60008060008060c0858703121561460357600080fd5b61460d868661455e565b6060860151608087015160a090970151919890975090945092505050565b634e487b7160e01b600052601160045260246000fd5b808201808211156108905761089061462b565b6001600160801b038281168282160390808211156146745761467461462b565b5092915050565b6001600160801b038181168382160190808211156146745761467461462b565b6001600160781b038181168382160190808211156146745761467461462b565b6001600160701b038281168282160390808211156146745761467461462b565b6001600160701b038181168382160190808211156146745761467461462b565b818103818111156108905761089061462b565b6000808335601e1984360301811261472557600080fd5b83018035915067ffffffffffffffff82111561474057600080fd5b60200191503681900382131561475557600080fd5b9250929050565b8781526020810187905260408101869052610120810161477f60608301876141c7565b8460c08301528360e08301528261010083015298975050505050505050565b80356147a9816143e3565b6001600160701b0390811683526020820135906147c5826143e3565b90811660208401526040820135906147dc826143e3565b90811660408401526060820135906147f3826143e3565b808216606085015250505050565b61020081016148108285614451565b612bc161018083018461479e565b80516001600160801b038116811461086457600080fd5b60006040828403121561484757600080fd5b6040516040810181811067ffffffffffffffff8211171561487857634e487b7160e01b600052604160045260246000fd5b6040526148848361481e565b81526148926020840161481e565b60208201529392505050565b83815260e081016148b2602083018561479e565b82516001600160801b0390811660a084015260208401511660c0830152613e64565b85815261020081016148e96020830187614451565b6001600160701b039485166101a08301529284166101c082015292166101e09092019190915292915050565b600080600060a0848603121561492a57600080fd5b8351925061493b856020860161455e565b9150608084015190509250925092565b60006101008201905087825286602083015285604083015284606083015261497660808301856141c7565b8260e0830152979650505050505050565b60008060008084860360e081121561499e57600080fd5b60808112156149ac57600080fd5b506040516080810181811067ffffffffffffffff821117156149de57634e487b7160e01b600052604160045260246000fd5b60405285516149ec816143e3565b815260208601516149fc816143e3565b60208201526040860151614a0f816143e3565b60408201526060860151614a22816143e3565b6060820152608086015160a087015160c090970151919890975090945092505050565b868152602081018690526101208101614a616040830187614258565b8460c08301528360e083015282610100830152979650505050505050565b634e487b7160e01b600052603260045260246000fd5b6101a08101614aa48285614451565b826101808301529392505050565b600080600060608486031215614ac757600080fd5b614ad08461481e565b9250614ade6020850161481e565b9150604084015190509250925092565b6000808335601e19843603018112614b0557600080fd5b83018035915067ffffffffffffffff821115614b2057600080fd5b6020019150600581901b360382131561475557600080fd5b80820281158282048414176108905761089061462b565b600060018201614b6157614b6161462b565b5060010190565b848152608060208201526000614b816080830186614305565b6001600160801b039485166040840152929093166060909101529392505050565b6020808252602b908201527f496e697469616c697a61626c653a20636f6e7472616374206973206e6f74206960408201526a6e697469616c697a696e6760a81b606082015260800190565b81835281816020850137506000828201602090810191909152601f909101601f19169091010190565b6001600160701b038416815260406020820152600061424f604083018486614bed565b8481526001600160701b0384166020820152606060408201526000613eda606083018486614bed565b83815260406020820152600061424f604083018486614bed565b6001600160801b038416815260406020820152600061424f604083018486614bed565b600060208284031215614cb157600080fd5b81518015158114612bc157600080fd5b600060208284031215614cd357600080fd5b5051919050565b60005b83811015614cf5578181015183820152602001614cdd565b50506000910152565b60008251614d10818460208701614cda565b9190910192915050565b6020815260008251806020840152614d39816040850160208701614cda565b601f01601f1916919091016040019291505056fea2646970667358221220fc7f87badd135e4d9c39da31f917e7386092df49e02ecf06f287e5e8de44cf2364736f6c63430008140033",
  "libraries": {
    "CreditMath": "0x50522Af0679A602018c30751B20CeFE5b434C775"
  },
  "devdoc": {
    "events": {
      "Borrow(uint256,address,address,address,uint256,uint256,(uint112,uint112,uint32),uint256,uint256,uint256)": {
        "details": "Emits when borrow function is called.",
        "params": {
          "assetOut": "The amount of asset ERC20 received by assetTo.",
          "assetTo": "The address of the receiver of asset ERC20.",
          "dueOut": "The locked debt received by dueTo.",
          "dueTo": "The address of the receiver of locked debt.",
          "feeIn": "The amount of fee paid by lender.",
          "id": "The array index of the locked debt received by dueTo.",
          "maturity": "The unix timestamp maturity of the Pool.",
          "protocolFeeIn": "The amount of protocol fee paid by lender.",
          "sender": "The address of the caller.",
          "stakingFeeIn": "The amount of staking fee paid by lender."
        }
      },
      "Burn(uint256,address,address,address,uint256,uint256,uint128,uint256)": {
        "details": "Emits when burn function is called.",
        "params": {
          "assetOut": "The amount of asset ERC20 received.",
          "assetTo": "The address of the receiver of asset ERC20.",
          "collateralOut": "The amount of collateral ERC20 received.",
          "collateralTo": "The addres of the receiver of collateral ERC20.",
          "feeOut": "The amount of fee asset ERC20 received.",
          "liquidityIn": "The amount of liquidity balance burnt by the sender.",
          "maturity": "The unix timestamp maturity of the Pool.",
          "sender": "The address of the caller."
        }
      },
      "CollectProtocolFee(address,address,uint256)": {
        "details": "Emits when collectProtocolFee function is called",
        "params": {
          "protocolFeeOut": "The amount of protocol fee asset ERC20 received.",
          "sender": "The address of the caller.",
          "to": "The address of the receiver of asset ERC20."
        }
      },
      "CollectStakingFee(address,address,uint256)": {
        "details": "Emits when collectStakingFee function is called",
        "params": {
          "sender": "The address of the caller.",
          "stakingFeeOut": "The amount of protocol fee asset ERC20 received.",
          "to": "The address of the receiver of asset ERC20."
        }
      },
      "Initialized(uint8)": {
        "details": "Triggered when the contract has been initialized or reinitialized."
      },
      "Lend(uint256,address,address,address,uint256,(uint112,uint112,uint112,uint112),uint256,uint256,uint256)": {
        "details": "Emits when lend function is called.",
        "params": {
          "assetIn": "The increase in X state.",
          "claimsOut": "The amount of loan balance and coverage balance received.",
          "coverageTo": "The addres of the receiver of coverage balance.",
          "feeIn": "The amount of fee paid by lender.",
          "loanTo": "The address of the receiver of loan balance.",
          "maturity": "The unix timestamp maturity of the Pool.",
          "protocolFeeIn": "The amount of protocol fee paid by lender.",
          "sender": "The address of the caller.",
          "stakingFeeIn": "The amount of staking fee paid by lender."
        }
      },
      "Mint(uint256,address,address,address,uint256,uint256,uint256,(uint112,uint112,uint32),uint256)": {
        "details": "Emits when mint function is called.",
        "params": {
          "assetIn": "The increase in the X state.",
          "dueOut": "The locked debt received by dueTo.",
          "dueTo": "The address of the receiver of locked debt balance.",
          "feeIn": "The amount of fee asset ERC20 deposited.",
          "id": "The array index of the locked debt received by dueTo.",
          "liquidityOut": "The amount of liquidity balance received by liquidityTo.",
          "liquidityTo": "The address of the receiver of liquidity balance.",
          "maturity": "The unix timestamp maturity of the Pool.",
          "sender": "The address of the caller."
        }
      },
      "Pay(uint256,address,address,address,uint256[],uint256,uint256)": {
        "details": "Emits when pay function is called.",
        "params": {
          "assetIn": "The total amount of asset ERC20 paid.",
          "collateralOut": "The total amount of collateral ERC20 received.",
          "duesFullyPaid": "The ids fully repaid.",
          "maturity": "The unix timestamp maturity of the Pool.",
          "owner": "The address of the owner of locked debt.",
          "sender": "The address of the caller.",
          "to": "The address of the receiver of collateral ERC20."
        }
      },
      "Sync(uint256,uint112,uint112,uint112)": {
        "details": "Emits when the state gets updated.",
        "params": {
          "maturity": "The unix timestamp maturity of the Pool.",
          "x": "The new x state of the pool.",
          "y": "The new y state of the pool.",
          "z": "The new z state of the pool."
        }
      },
      "Withdraw(uint256,address,address,address,(uint112,uint112,uint112,uint112),(uint128,uint128))": {
        "details": "Emits when withdraw function is called.",
        "params": {
          "assetTo": "The address of the receiver of asset ERC20.",
          "claimsIn": "The amount of loan balance and coverage balance burnt by the sender.",
          "collateralTo": "The address of the receiver of collateral ERC20.",
          "maturity": "The unix timestamp maturity of the Pool.",
          "sender": "The address of the caller.",
          "tokensOut": "The amount of asset ERC20 and collateral ERC20 received."
        }
      }
    },
    "kind": "dev",
    "methods": {
      "borrow((uint256,address,address,uint112,uint112,uint112,bytes))": {
        "details": "Borrow asset ERC20 from the Pool.Must be called by a contract implementing the ICreditBorrowCallback interface.",
        "params": {
          "param": "The borrow parameter found in the BorrowParam struct."
        },
        "returns": {
          "assetOut": "The amount of asset ERC20 received.",
          "dueOut": "The locked debt received by dueTo.",
          "id": "The array index of the locked debt received by dueTo."
        }
      },
      "burn((uint256,address,address,uint256))": {
        "details": "Remove liquidity from a Pool by a liquidity provider.Can only be called after the maturity of the Pool.",
        "params": {
          "param": "The burn parameter found in the BurnParam struct."
        },
        "returns": {
          "assetOut": "The amount of asset ERC20 received.",
          "collateralOut": "The amount of collateral ERC20 received."
        }
      },
      "claimsOf(uint256,address)": {
        "details": "Returms the claims of a user in a Pool.",
        "params": {
          "maturity": "The unix timestamp maturity of the Pool.",
          "owner": "The address of the user."
        },
        "returns": {
          "_0": "The claims balance."
        }
      },
      "collectProtocolFee(address)": {
        "details": "Collect the stored protocol fee.Can only be called by the owner.",
        "params": {
          "to": "The receiver of the protocol fee."
        },
        "returns": {
          "protocolFeeOut": "The total amount of protocol fee asset ERC20 received."
        }
      },
      "collectStakingFee(address)": {
        "details": "Collect the stored staking fee.Can only be called by the owner.",
        "params": {
          "to": "The receiver of the staking fee."
        },
        "returns": {
          "stakingFeeOut": "The total amount of staking fee asset ERC20 received."
        }
      },
      "constantProduct(uint256)": {
        "details": "Returns the Constant Product state of a Pool.The Y state follows the UQ80.32 format.",
        "params": {
          "maturity": "The unix timestamp maturity of the Pool."
        },
        "returns": {
          "_0": "The x state.",
          "_1": "The y state.",
          "_2": "The z state."
        }
      },
      "dueOf(uint256,address,uint256)": {
        "details": "Returns a locked debt of a user in a Pool.",
        "params": {
          "id": "The index of the locked debt",
          "maturity": "The unix timestamp maturity of the Pool.",
          "owner": "The address of the user."
        },
        "returns": {
          "_0": "The locked debt balance."
        }
      },
      "initialize(address,address,uint16,uint16,uint16)": {
        "details": "Initializes the Pair contract.Called by the Credit factory contract.",
        "params": {
          "_asset": "The address of the ERC20 being lent and borrowed.",
          "_collateral": "The address of the ERC20 as the collateral.",
          "_lpFee": "The chosen LP fee rate.",
          "_protocolFee": "The chosen protocol fee rate.",
          "_stakingFee": "The chosen staking fee rate."
        }
      },
      "lend((uint256,address,address,uint112,uint112,uint112,bytes))": {
        "details": "Lend asset ERC20 into the Pool.Must be called by a contract implementing the ICreditLendCallback interface.",
        "params": {
          "param": "The lend parameter found in the LendParam struct."
        },
        "returns": {
          "assetIn": "The amount of asset ERC20 deposited.",
          "claimsOut": "The amount of loan balance and coverage balance received."
        }
      },
      "liquidityOf(uint256,address)": {
        "details": "Returns the liquidity balance of a user in a Pool.",
        "params": {
          "maturity": "The unix timestamp maturity of the Pool.",
          "owner": "The address of the user."
        },
        "returns": {
          "_0": "The liquidity balance."
        }
      },
      "lpFeeStored(uint256)": {
        "details": "Return the fee stored of the Pool given maturity.",
        "params": {
          "maturity": "The unix timestamp maturity of the Pool."
        },
        "returns": {
          "_0": "The fee in asset ERC20 stored in the Pool."
        }
      },
      "mint((uint256,address,address,uint112,uint112,uint112,bytes))": {
        "details": "Add liquidity into a Pool by a liquidity provider.Liquidity providers can be thought as making both lending and borrowing positions.Must be called by a contract implementing the ICreditMintCallback interface.",
        "params": {
          "param": "The mint parameter found in the MintParam struct."
        },
        "returns": {
          "assetIn": "The amount of asset ERC20 deposited.",
          "dueOut": "The locked debt received by dueTo.",
          "id": "The array index of the locked debt received by dueTo.",
          "liquidityOut": "The amount of liquidity balance received by liquidityTo."
        }
      },
      "pay((uint256,address,address,uint256[],uint112[],uint112[],bytes))": {
        "details": "Pay asset ERC20 into the Pool to repay debt for borrowers.If there are asset paid, must be called by a contract implementing the ICreditPayCallback interface.",
        "params": {
          "param": "The pay parameter found in the PayParam struct."
        },
        "returns": {
          "assetIn": "The total amount of asset ERC20 paid.",
          "collateralOut": "The total amount of collateral ERC20 received.",
          "duesFullyPaid": "Dues fully reimbursed during the call"
        }
      },
      "totalClaims(uint256)": {
        "details": "Returns the total claims of a Pool.",
        "params": {
          "maturity": "The unix timestamp maturity of the Pool."
        },
        "returns": {
          "_0": "The total claims."
        }
      },
      "totalDebtCreated(uint256)": {
        "details": "Returns the total debt created.",
        "params": {
          "maturity": "The unix timestamp maturity of the Pool."
        },
        "returns": {
          "_0": "The total asset ERC20 debt created."
        }
      },
      "totalDuesOf(uint256,address)": {
        "details": "Returns the number of dues owned by owner.",
        "params": {
          "maturity": "The unix timestamp maturity of the Pool.",
          "owner": "The address of the user."
        }
      },
      "totalLiquidity(uint256)": {
        "details": "Returns the total liquidity supply of a Pool.",
        "params": {
          "maturity": "The unix timestamp maturity of the Pool."
        },
        "returns": {
          "_0": "The total liquidity supply."
        }
      },
      "totalReserves(uint256)": {
        "details": "Returns the asset ERC20 and collateral ERC20 balances of a Pool.",
        "params": {
          "maturity": "The unix timestamp maturity of the Pool."
        },
        "returns": {
          "_0": "The asset ERC20 and collateral ERC20 locked."
        }
      },
      "withdraw((uint256,address,address,(uint112,uint112,uint112,uint112)))": {
        "details": "Withdraw asset ERC20 and/or collateral ERC20 for lenders.Can only be called after the maturity of the Pool.",
        "params": {
          "param": "The withdraw parameter found in the WithdrawParam struct."
        },
        "returns": {
          "tokensOut": "The amount of asset ERC20 and collateral ERC20 received."
        }
      }
    },
    "stateVariables": {
      "asset": {
        "details": "Return the address of the ERC20 being lent and borrowed.",
        "return": "The address of the asset ERC20.",
        "returns": {
          "_0": "The address of the asset ERC20."
        }
      },
      "collateral": {
        "details": "Return the address of the ERC20 as collateral.",
        "return": "The address of the collateral ERC20.",
        "returns": {
          "_0": "The address of the collateral ERC20."
        }
      },
      "factory": {
        "details": "Return the address of the factory contract that deployed this contract.",
        "return": "The address of the factory contract.",
        "returns": {
          "_0": "The address of the factory contract."
        }
      },
      "lpFee": {
        "details": "Must be downcasted to uint16."
      },
      "pools": {
        "details": "Stores the individual states of each Pool."
      },
      "protocolFee": {
        "details": "Return the protocol fee per second earned by the owner.Must be downcasted to uint16.",
        "return": "The protocol fee per second following the UQ0.40 format.",
        "returns": {
          "_0": "The protocol fee per second following the UQ0.40 format."
        }
      },
      "protocolFeeStored": {
        "details": "Return the protocol fee stored.",
        "return": "The protocol fee in asset ERC20 stored.",
        "returns": {
          "_0": "The protocol fee in asset ERC20 stored."
        }
      },
      "stakingFee": {
        "details": "Return the staking fee per second earned by the owner.Must be downcasted to uint16.",
        "return": "The staking fee per second following the UQ0.40 format.",
        "returns": {
          "_0": "The staking fee per second following the UQ0.40 format."
        }
      },
      "stakingFeeStored": {
        "details": "Return the staking fee stored.",
        "return": "The staking fee in asset ERC20 stored.",
        "returns": {
          "_0": "The staking fee in asset ERC20 stored."
        }
      }
    },
    "title": "Credit Pair",
    "version": 1
  },
  "userdoc": {
    "kind": "user",
    "methods": {},
    "version": 1
  },
  "storageLayout": {
    "storage": [
      {
        "astId": 936,
        "contract": "contracts/core/CreditPair.sol:CreditPair",
        "label": "_initialized",
        "offset": 0,
        "slot": "0",
        "type": "t_uint8"
      },
      {
        "astId": 939,
        "contract": "contracts/core/CreditPair.sol:CreditPair",
        "label": "_initializing",
        "offset": 1,
        "slot": "0",
        "type": "t_bool"
      },
      {
        "astId": 1248,
        "contract": "contracts/core/CreditPair.sol:CreditPair",
        "label": "_status",
        "offset": 0,
        "slot": "1",
        "type": "t_uint256"
      },
      {
        "astId": 1306,
        "contract": "contracts/core/CreditPair.sol:CreditPair",
        "label": "__gap",
        "offset": 0,
        "slot": "2",
        "type": "t_array(t_uint256)49_storage"
      },
      {
        "astId": 8898,
        "contract": "contracts/core/CreditPair.sol:CreditPair",
        "label": "factory",
        "offset": 0,
        "slot": "51",
        "type": "t_contract(IFactory)11072"
      },
      {
        "astId": 8903,
        "contract": "contracts/core/CreditPair.sol:CreditPair",
        "label": "asset",
        "offset": 0,
        "slot": "52",
        "type": "t_contract(IERC20)4937"
      },
      {
        "astId": 8908,
        "contract": "contracts/core/CreditPair.sol:CreditPair",
        "label": "collateral",
        "offset": 0,
        "slot": "53",
        "type": "t_contract(IERC20)4937"
      },
      {
        "astId": 8912,
        "contract": "contracts/core/CreditPair.sol:CreditPair",
        "label": "lpFee",
        "offset": 0,
        "slot": "54",
        "type": "t_uint256"
      },
      {
        "astId": 8916,
        "contract": "contracts/core/CreditPair.sol:CreditPair",
        "label": "protocolFee",
        "offset": 0,
        "slot": "55",
        "type": "t_uint256"
      },
      {
        "astId": 8920,
        "contract": "contracts/core/CreditPair.sol:CreditPair",
        "label": "stakingFee",
        "offset": 0,
        "slot": "56",
        "type": "t_uint256"
      },
      {
        "astId": 8924,
        "contract": "contracts/core/CreditPair.sol:CreditPair",
        "label": "protocolFeeStored",
        "offset": 0,
        "slot": "57",
        "type": "t_uint256"
      },
      {
        "astId": 8928,
        "contract": "contracts/core/CreditPair.sol:CreditPair",
        "label": "stakingFeeStored",
        "offset": 0,
        "slot": "58",
        "type": "t_uint256"
      },
      {
        "astId": 8934,
        "contract": "contracts/core/CreditPair.sol:CreditPair",
        "label": "pools",
        "offset": 0,
        "slot": "59",
        "type": "t_mapping(t_uint256,t_struct(Pool)11138_storage)"
      }
    ],
    "types": {
      "t_address": {
        "encoding": "inplace",
        "label": "address",
        "numberOfBytes": "20"
      },
      "t_array(t_struct(Due)11100_storage)dyn_storage": {
        "base": "t_struct(Due)11100_storage",
        "encoding": "dynamic_array",
        "label": "struct IPair.Due[]",
        "numberOfBytes": "32"
      },
      "t_array(t_uint256)49_storage": {
        "base": "t_uint256",
        "encoding": "inplace",
        "label": "uint256[49]",
        "numberOfBytes": "1568"
      },
      "t_bool": {
        "encoding": "inplace",
        "label": "bool",
        "numberOfBytes": "1"
      },
      "t_contract(IERC20)4937": {
        "encoding": "inplace",
        "label": "contract IERC20",
        "numberOfBytes": "20"
      },
      "t_contract(IFactory)11072": {
        "encoding": "inplace",
        "label": "contract IFactory",
        "numberOfBytes": "20"
      },
      "t_mapping(t_address,t_array(t_struct(Due)11100_storage)dyn_storage)": {
        "encoding": "mapping",
        "key": "t_address",
        "label": "mapping(address => struct IPair.Due[])",
        "numberOfBytes": "32",
        "value": "t_array(t_struct(Due)11100_storage)dyn_storage"
      },
      "t_mapping(t_address,t_struct(Claims)11093_storage)": {
        "encoding": "mapping",
        "key": "t_address",
        "label": "mapping(address => struct IPair.Claims)",
        "numberOfBytes": "32",
        "value": "t_struct(Claims)11093_storage"
      },
      "t_mapping(t_address,t_uint256)": {
        "encoding": "mapping",
        "key": "t_address",
        "label": "mapping(address => uint256)",
        "numberOfBytes": "32",
        "value": "t_uint256"
      },
      "t_mapping(t_uint256,t_struct(Pool)11138_storage)": {
        "encoding": "mapping",
        "key": "t_uint256",
        "label": "mapping(uint256 => struct IPair.Pool)",
        "numberOfBytes": "32",
        "value": "t_struct(Pool)11138_storage"
      },
      "t_struct(Claims)11093_storage": {
        "encoding": "inplace",
        "label": "struct IPair.Claims",
        "members": [
          {
            "astId": 11086,
            "contract": "contracts/core/CreditPair.sol:CreditPair",
            "label": "loanPrincipal",
            "offset": 0,
            "slot": "0",
            "type": "t_uint112"
          },
          {
            "astId": 11088,
            "contract": "contracts/core/CreditPair.sol:CreditPair",
            "label": "loanInterest",
            "offset": 14,
            "slot": "0",
            "type": "t_uint112"
          },
          {
            "astId": 11090,
            "contract": "contracts/core/CreditPair.sol:CreditPair",
            "label": "coveragePrincipal",
            "offset": 0,
            "slot": "1",
            "type": "t_uint112"
          },
          {
            "astId": 11092,
            "contract": "contracts/core/CreditPair.sol:CreditPair",
            "label": "coverageInterest",
            "offset": 14,
            "slot": "1",
            "type": "t_uint112"
          }
        ],
        "numberOfBytes": "64"
      },
      "t_struct(Due)11100_storage": {
        "encoding": "inplace",
        "label": "struct IPair.Due",
        "members": [
          {
            "astId": 11095,
            "contract": "contracts/core/CreditPair.sol:CreditPair",
            "label": "debt",
            "offset": 0,
            "slot": "0",
            "type": "t_uint112"
          },
          {
            "astId": 11097,
            "contract": "contracts/core/CreditPair.sol:CreditPair",
            "label": "collateral",
            "offset": 14,
            "slot": "0",
            "type": "t_uint112"
          },
          {
            "astId": 11099,
            "contract": "contracts/core/CreditPair.sol:CreditPair",
            "label": "startBlock",
            "offset": 28,
            "slot": "0",
            "type": "t_uint32"
          }
        ],
        "numberOfBytes": "32"
      },
      "t_struct(Pool)11138_storage": {
        "encoding": "inplace",
        "label": "struct IPair.Pool",
        "members": [
          {
            "astId": 11122,
            "contract": "contracts/core/CreditPair.sol:CreditPair",
            "label": "state",
            "offset": 0,
            "slot": "0",
            "type": "t_struct(State)11119_storage"
          },
          {
            "astId": 11126,
            "contract": "contracts/core/CreditPair.sol:CreditPair",
            "label": "liquidities",
            "offset": 0,
            "slot": "7",
            "type": "t_mapping(t_address,t_uint256)"
          },
          {
            "astId": 11131,
            "contract": "contracts/core/CreditPair.sol:CreditPair",
            "label": "claims",
            "offset": 0,
            "slot": "8",
            "type": "t_mapping(t_address,t_struct(Claims)11093_storage)"
          },
          {
            "astId": 11137,
            "contract": "contracts/core/CreditPair.sol:CreditPair",
            "label": "dues",
            "offset": 0,
            "slot": "9",
            "type": "t_mapping(t_address,t_array(t_struct(Due)11100_storage)dyn_storage)"
          }
        ],
        "numberOfBytes": "320"
      },
      "t_struct(State)11119_storage": {
        "encoding": "inplace",
        "label": "struct IPair.State",
        "members": [
          {
            "astId": 11103,
            "contract": "contracts/core/CreditPair.sol:CreditPair",
            "label": "reserves",
            "offset": 0,
            "slot": "0",
            "type": "t_struct(Tokens)11084_storage"
          },
          {
            "astId": 11105,
            "contract": "contracts/core/CreditPair.sol:CreditPair",
            "label": "lpFeeStored",
            "offset": 0,
            "slot": "1",
            "type": "t_uint256"
          },
          {
            "astId": 11107,
            "contract": "contracts/core/CreditPair.sol:CreditPair",
            "label": "totalLiquidity",
            "offset": 0,
            "slot": "2",
            "type": "t_uint256"
          },
          {
            "astId": 11110,
            "contract": "contracts/core/CreditPair.sol:CreditPair",
            "label": "totalClaims",
            "offset": 0,
            "slot": "3",
            "type": "t_struct(Claims)11093_storage"
          },
          {
            "astId": 11112,
            "contract": "contracts/core/CreditPair.sol:CreditPair",
            "label": "totalDebtCreated",
            "offset": 0,
            "slot": "5",
            "type": "t_uint120"
          },
          {
            "astId": 11114,
            "contract": "contracts/core/CreditPair.sol:CreditPair",
            "label": "x",
            "offset": 15,
            "slot": "5",
            "type": "t_uint112"
          },
          {
            "astId": 11116,
            "contract": "contracts/core/CreditPair.sol:CreditPair",
            "label": "y",
            "offset": 0,
            "slot": "6",
            "type": "t_uint112"
          },
          {
            "astId": 11118,
            "contract": "contracts/core/CreditPair.sol:CreditPair",
            "label": "z",
            "offset": 14,
            "slot": "6",
            "type": "t_uint112"
          }
        ],
        "numberOfBytes": "224"
      },
      "t_struct(Tokens)11084_storage": {
        "encoding": "inplace",
        "label": "struct IPair.Tokens",
        "members": [
          {
            "astId": 11081,
            "contract": "contracts/core/CreditPair.sol:CreditPair",
            "label": "asset",
            "offset": 0,
            "slot": "0",
            "type": "t_uint128"
          },
          {
            "astId": 11083,
            "contract": "contracts/core/CreditPair.sol:CreditPair",
            "label": "collateral",
            "offset": 16,
            "slot": "0",
            "type": "t_uint128"
          }
        ],
        "numberOfBytes": "32"
      },
      "t_uint112": {
        "encoding": "inplace",
        "label": "uint112",
        "numberOfBytes": "14"
      },
      "t_uint120": {
        "encoding": "inplace",
        "label": "uint120",
        "numberOfBytes": "15"
      },
      "t_uint128": {
        "encoding": "inplace",
        "label": "uint128",
        "numberOfBytes": "16"
      },
      "t_uint256": {
        "encoding": "inplace",
        "label": "uint256",
        "numberOfBytes": "32"
      },
      "t_uint32": {
        "encoding": "inplace",
        "label": "uint32",
        "numberOfBytes": "4"
      },
      "t_uint8": {
        "encoding": "inplace",
        "label": "uint8",
        "numberOfBytes": "1"
      }
    }
  }
}